:10000000B9C000000C94B1080C9418090C94DA08DB
:10001000E1C000000C945009DDC00000DBC000000E
:10002000D9C00000D7C00000D5C00000D3C0000078
:10003000D1C00000CFC00000CDC0000022C200002F
:10004000C9C00000C7C00000C5C00000C3C0000098
:10005000C1C000000C948108BDC00000BBC00000FE
:10006000B9C000000C94D50A0C94040BB3C0000076
:10007000B1C00000AFC00000ADC00000ABC00000C8
:10008000A9C00000A7C00000A5C00000A3C00000D8
:10009000A1C000009FC000009DC000009BC00000E8
:1000A00099C0000097C0000095C0000093C00000F8
:1000B00091C000008FC000008DC000008BC0000008
:1000C00089C0000087C0000085C000000C94320B7E
:1000D0000C94610B7FC000000C940E0C0C943D0C32
:1000E00079C0000070049504BA043D053D053D0546
:1000F0003D053D053D053D053D053D053D053D05F0
:100100003D053D053D053D053D053D053D053D05DF
:100110003D053D053D053D053D053D053D053D05CF
:100120003D053D053D053D053D053D053D053D05BF
:100130003D053D053D053D053D053D053D053D05AF
:100140003D053D053D053D053D052D053D053D05AF
:100150003D05F504230511056E043D051D05170534
:100160000E053D053D050C05DF043D053D053D053E
:100170003705790911241FBECFEFD1E2DEBFCDBF15
:1001800000E00CBF12E0A0E0B2E0E0EBFDE100E037
:100190000BBF02C007900D92A431B107D9F723E03D
:1001A000A4E1B2E001C01D92AB3CB207E1F710E060
:1001B000CAEBD0E000E006C021970109802FFE01C4
:1001C0000E949B0EC93BD10780E00807A9F7A6D281
:1001D0000C94D60E15CFFC01168A178A108E118E3C
:1001E000178E168E1182108211A210A213A212A2D3
:1001F000089585B5856085BD8BE987BDEEE6F0E0A5
:10020000808182608083A99A16BC0895E9E6F0E0B7
:10021000808182608083E89AE09A0895CF93DF938B
:10022000EC0150980898F2DFCE01E3DFDF91CF9127
:100230000895FC01009B1CC086899789A08DB18D13
:100240000197A109B109868B978BA08FB18F828D01
:10025000938DA48DB58D0197A109B109828F938FDC
:10026000A48FB58F868D978D0197978F868F089570
:1002700000991BC086899789A08DB18D0196A11D1B
:10028000B11D868B978BA08FB18F828D938DA48D9E
:10029000B58D0196A11DB11D828F938FA48FB58F4F
:1002A000868D978D0196978F868F0895CF93DF93D4
:1002B000EC016E8D7F8D072E000C880B990B0E9430
:1002C000840D21E830E840E85AE30E94380E20E02F
:1002D00030E044EB53E40E94380E0E94510D7983C4
:1002E0006883CB01DF91CF910895CF92DF92EF9297
:1002F000FF920F931F93FC0102851385248535859A
:1003000006871787208B318BC680D780E084F184E5
:10031000C286D386E486F5864281538164817581E5
:10032000468357836087718786899789A08DB18DB1
:1003300082839383A483B583480F591F6A1F7B1F51
:10034000D701C601840F951FA61FB71F800F911FED
:10035000A21FB31FB595A79597958795B595A795B6
:1003600097958795828B938BA48BB58B168A178A6A
:10037000108E118E1F910F91FF90EF90DF90CF9014
:1003800008956C9809986C98749A0998119AEAE6FD
:10039000F0E0808182608083EC9AE49A0895FC0109
:1003A00011821082EECF0895CF93DF93EC01688124
:1003B0007981072E000C880B990B0E94840D20E098
:1003C00030E044E353E40E94E90C20E030E044EBE9
:1003D00053E40E94380E0E94510D7F836E83CB013F
:1003E000DF91CF910895249A279A259AE0E8F0E0CA
:1003F000808182688083E1E8F0E080818A61808387
:1004000089EF90E0909387008093860008952C9A5E
:100410002F9808952C982F9A08952C9A2F9A10921D
:1004200089001092880008950F931F93CF93DF9354
:100430008C01EB011C161D060CF4E9DFC93FD10548
:1004400044F4DD2344F4D195C195D109C801E2DF1C
:1004500002C0C9EFD0E0D0938900C0938800DF913B
:10046000CF911F910F910895CF93DF93EC01BBDFE4
:10047000CE01D3DF60E070E0CE01D6DFDF91CF9117
:1004800008951F920F920FB60F9211248F939F938E
:10049000AF93BF938091F8029091F902A091FA0274
:1004A000B091FB020196A11DB11D8093F8029093BB
:1004B000F902A093FA02B093FB028091F4029091AA
:1004C000F502A091F602B091F7020396A11DB11DAD
:1004D0008093F4029093F502A093F602B093F70292
:1004E0008091F4029091F502A091F602B091F7028A
:1004F0008D379105A105B10538F18091F4029091F5
:10050000F502A091F602B091F7028D579109A10969
:10051000B1098093F4029093F502A093F602B09390
:10052000F7028091F8029091F902A091FA02B0913D
:10053000FB020196A11DB11D8093F8029093F90270
:10054000A093FA02B093FB02BF91AF919F918F915C
:100550000F900FBE0F901F9018952FB7F8946091D1
:10056000F8027091F9028091FA029091FB022FBF7C
:100570000895E1EBF0E0808184608083E0E7F0E0C3
:100580008081816080831092B200089581E0809321
:10059000EA0280ED92E0909357028093560208950C
:1005A0005198599AE9E6F0E0808180628083EA9A66
:1005B000E29A089552985A9AE9E6F0E080818860BC
:1005C0008083E99AE19A0895EBDFF4DF82EE92E00E
:1005D000F1D68EEB92E022DE83EE92E045DF86EBF1
:1005E00092E0CFCE0895CF93DF9378944A9907C0D5
:1005F00064EC7FEF82EE92E0BDD64A9BF9CFCEEB62
:10060000D2E01F8E1E8E82EE92E0A7D610922802B4
:10061000109227021A8E1B8E1C8E1D8EE7E8F2E0C8
:1006200016A615A68E8D9F8D9093860280938502C7
:100630001092000215A216A217A210A6158E168EF1
:10064000178E10A211A212A213A214A2DF91CF91B1
:100650000895CF93DF9378944B9907C06EEC7FEFAA
:1006600082EE92E087D64B9BF9CFCEEBD2E01F8E85
:100670001E8E82EE92E071D610922802109227020E
:100680001A8E1B8E1C8E1D8EE7E8F2E016A615A6AC
:100690008E8D9F8D9093860280938502109200022A
:1006A00015A216A217A210A611A212A213A214A29A
:1006B000158E168E178E10A281E08093E402DF91D2
:1006C000CF91089581E08093EC021092EE02109297
:1006D000ED022FEC3FEF3093210220932002809314
:1006E000F102809300028093F002809124029091A5
:1006F00025029093B5028093B402109228021092C2
:1007000027021092D8021092D9021092DA021092A7
:10071000DB021092E502469A409A0895CF93DF9348
:10072000CDB7DEB72F970FB6F894DEBF0FBECDBFA3
:10073000EAE0F1E0808181608083EBE0F1E080819C
:100740008E7F80839A9AA298989AA0983E9A389A17
:100750003BDF0FDF87E892E072D6E7E8F2E00F2E8A
:10076000412C512CF9E76F2EF3EC7F2EF02D458AAA
:10077000568A678A708E0F2E812C912CF9E7AF2E46
:10078000F3E4BF2EF02D818A928AA38AB48A0F2EB9
:10079000F6E6CF2EDC2CF6E0EF2EF1E4FF2EF02D66
:1007A0000AEB19E42CEC3EE343E353E363E870E423
:1007B000CF0167D688E592E042D60F2EF8E52F2EBE
:1007C000F2E03F2EF02DF101458A568A678A708E3D
:1007D000818A928AA38AB48A0F2EFBE1CF2EFFE290
:1007E000DF2EFBE0EF2EF1E4FF2EF02D0AE017EDF7
:1007F00023EA3DE349E25CE56FE570E4C10141D6DF
:1008000089E292E01CD6E9E2F2E0458A568A678ADC
:10081000708E818A928AA38AB48A0F2EC12CD12C21
:10082000F0E9EF2EF1E4FF2EF02D00E010E098014A
:1008300040E050E060ED71E4CF0123D6789487E684
:1008400090E06DD781E092E0DBD78FE39CE90197E0
:10085000F1F700C00000C7DE89E190E0F10196A742
:1008600085A784EC9FEF909321028093200282EE73
:100870009FEF9093250280932402412C512C32014A
:10088000212C1C8218861F821D8219821E821F86BF
:100890001E861B861C861D8619861A861B821A8256
:1008A000332433940F2EF9E2AF2EF2E0BF2EF02D59
:1008B0000F2EF8E18F2EF2E09F2EF02D49D7809376
:1008C000260290E0FC01F197E734F10508F0D5C06D
:1008D0008827EE58FF4F8F4F0C949B0E232CCDC0D2
:1008E0003092EE021092ED021092EC023092F10280
:1008F000309200021092EA023092F00280912402BB
:10090000909125029093B5028093B4021092280230
:10091000109227021092D8021092D9021092DA0295
:100920001092DB02469A409AA8C03092ED021092D3
:10093000EE021092EC021092EA023092F102309232
:1009400000023092F002809124029091250290934F
:10095000B5028093B40210922802109227021092DE
:10096000D8021092D9021092DA021092DB02469A53
:10097000409A83C01092ED021092EE023092EC0287
:100980001092EA023092F102309200023092F002AC
:1009900080912402909125029093B5028093B40235
:1009A00010922802109227021092D8021092D902B7
:1009B0001092DA021092DB02469A409A5EC01092C0
:1009C000F102309200021092B5021092B40282EE4F
:1009D00092E0C3D4109225021092240210922802B1
:1009E000109227021092F00248C00F2EFAE9CF2E83
:1009F000F9E9DF2EF1E2EF2EF1E4FF2EF02D0CEEFF
:100A000011E528EB3DE348E451EE62ED70E488E542
:100A100092E037D51EDE31C0B9DD2FC03092E90239
:100A20002CC03092E7023092E8023C8226C0EBE014
:100A3000F1E080818160808320C0EBE0F1E0808183
:100A40008E7F80831AC080912002909121020196AE
:100A5000909321028093200210C0809120029091F7
:100A600021020197909321028093200206C0809179
:100A7000EF02811102C03092EB02109226028091A7
:100A800024029091250294D680E27DD680912002A6
:100A9000909121028DD681E192E0B2D68091E90257
:100AA0008823F1F0FE81F11171C22981211118C052
:100AB0008D81811115C09F81911112C0E885E111CE
:100AC0000FC0A2984ADD2B013C0160C2A09A10928F
:100AD000E9028091EB0281110CC039823E8265C02F
:100AE0008091EB02882309F460C0F981FF2381F033
:100AF00001C03E822D81211158C28F81811121C0F8
:100B00009885911120C0A29A28DD2B013C014DC28D
:100B1000ED81EE23D9F021DDDC01CB0184199509AB
:100B2000A609B70984389340A105B10570F0EBE040
:100B3000F1E080818160808310DD2B013C011D820A
:100B400008C0398203C0398201C03D82FF81FF2382
:100B500099F003DDDC01CB0184199509A609B709D9
:100B6000883C9105A105B10530F0A098F6DC2B0179
:100B70003C011F8204C03F8228852223B1F0EDDCB6
:100B8000DC01CB0184199509A609B709883C9105B8
:100B9000A105B10548F0A2981092EB0218861F82B9
:100BA0001D8219821E8201C0388686EB92E0FCDB32
:100BB00099231CF4919581959109803D924094F080
:100BC00083EE92E02ADC1092B7021092B602F50191
:100BD00016A615A611A212A213A214A2158E168E85
:100BE000178E10A22110D2DC8091E702882311F128
:100BF000FC81FF2329F0CADCB0DC2B013C01212C55
:100C00008091E802882399F0A8DCDC01CB018419EB
:100C10009509A609B70980329340A105B10548F0AE
:100C2000A2981092E8021092E7021C8203C01C8274
:100C300001C01C828091E602882309F4CDC0809116
:100C400022029091230206970CF0C6C080912402E4
:100C5000909125024E9609F0BFC08091E502811166
:100C6000A6C1BAC0FA85F11117C02985211127C084
:100C70008C85811124C09D85911121C0EE85E111E3
:100C80001EC0FF85F1111BC068DC2B013C0104C0B4
:100C90002A85222309F430C260DCDC01CB018419EF
:100CA0009509A609B709883C9105A105B10530F061
:100CB000A09A53DC2B013C011A8604C03A86898530
:100CC000882399F04ADCDC01CB0184199509A60937
:100CD000B70986399105A105B10530F0A29A3DDC2E
:100CE0002B013C01198604C039869B85992391F01C
:100CF00034DCDC01CB0184199509A609B709C29738
:100D0000A105B10530F042DC28DC2B013C011B863B
:100D100004C03B86EF85EE23B9F01FDCDC01CB017C
:100D200084199509A609B70980329340A105B10538
:100D300050F0EBE0F1E08081816080830EDC2B01DC
:100D40003C011F8604C03F86FD85FF2399F005DC2A
:100D5000DC01CB0184199509A609B7098C329140B1
:100D6000A105B10530F0A098F8DB2B013C011D86F0
:100D700004C03D868C85882399F0EFDBDC01CB0134
:100D800084199509A609B7098C329140A105B105CE
:100D900030F0A298E2DB2B013C011C8604C03C86AB
:100DA000FE85FF23C9F0D9DBDC01CB01841995094D
:100DB000A609B709843F9140A105B10560F0809173
:100DC00022029091230201969093230280932202A3
:100DD00079DC1E8601C03E868091F0028823C1F135
:100DE000809127029091280205970CF4E4C030C04E
:100DF000809124029091250203979093250280937D
:100E000024025B834A83409124025091250250932F
:100E1000B5024093B402309200028091200290917A
:100E200021029A01552324F422273327241B350B52
:100E3000AC01992324F444275527481B590B42172A
:100E4000530734F490932502809324021092F00209
:100E50008091F202882309F45DC08091270290916D
:100E6000280206970CF0BFC055C0809124029091D3
:100E70002502039690932502809324025B834A8384
:100E800080912402909125029093B5028093B40240
:100E900030920002809127029091280206978CF0F0
:100EA0008091F302882369F08091EE02811104C0E1
:100EB0008091ED02882329F08091EC02882309F4C7
:100EC000AAC0809124029091250291958195910963
:100ED000099704F51092F1021092F2021092250285
:100EE000109224023092EF021092280210922702F0
:100EF0001092D8021092D9021092DA021092DB02FC
:100F00001092EE021092ED021092EC024698409878
:100F10001B821A82E7E8F2E08081882321F0809129
:100F2000000281117DC0809158028823F1F08091E8
:100F3000000281111AC08AC0809116029091170296
:100F400001969093170280931602899734F40BC090
:100F5000109217021092160206C0109217021092F9
:100F600016023092E50210925802F5018081882322
:100F700021F08091EA028111A2C08091F2028111D8
:100F80009DCC8091EF028111ADC098CCE6DADC01F6
:100F9000CB0184199509A609B70980329340A105B0
:100FA000B10508F093CD3E829BCD3982B4CD2B851F
:100FB00021116ECE57CE4091D8025091D902609146
:100FC000DA027091DB029A018A819B81281B390B1E
:100FD000C901992324F488279927821B930B8897AA
:100FE0000CF006CF10CF4091D8025091D9026091F9
:100FF000DA027091DB029A01EA81FB812E1B3F0B22
:10100000C901992324F488279927821B930BC2973F
:101010000CF02BCF35CF87E65ED41092F30251CF80
:101020006091D0027091D102072E000C880B990BB1
:101030006BD5AB01BC0187E892E03DD232D582EEA0
:1010400092E098D1E7E8F2E010826DCF8EEB92E06B
:101050002DD9BC01990F880B990B56D5AB01BC015A
:1010600088E592E028D21DD582EE92E083D1F4018A
:10107000448155815783468362817381758364837C
:1010800020813181338322838091D4029091D502D3
:1010900099231CF4919581959109F40191838083A2
:1010A000280F391FCB01820F931F840F951F909338
:1010B000150280931402892B09F43ECF49CF86EBA9
:1010C00092E072D9BC01990F880B990B1DD5AB0129
:1010D000BC01C501F0D1E5D483EE92E0A5D9F501BC
:1010E00010824BCFB6DA82EE9FEF90932502809369
:1010F00024021092EF02E2CB9985992309F4F8CDEE
:10110000E1CD1F920F920FB60F9211240BB60F92E2
:101110002F933F934F935F936F937F938F939F93FF
:10112000AF93BF93EF93FF9381E080938702809307
:101130005802809329028EEB92E0D7D8FF91EF916D
:10114000BF91AF919F918F917F916F915F914F91DF
:101150003F912F910F900BBE0F900FBE0F901F90DD
:1011600018951F920F920FB60F9211240BB60F9283
:101170002F933F934F935F936F937F938F939F939F
:10118000AF93BF93EF93FF938EEB92E052D8FF9112
:10119000EF91BF91AF919F918F917F916F915F91EF
:1011A0004F913F912F910F900BBE0F900FBE0F905C
:1011B0001F90189578941F920F920FB60F921124DA
:1011C0000BB60F928F939F93EF93FF931092DD02D4
:1011D0001092DC028091F1028823F9F08091EE02F6
:1011E000811110C08091ED0281110CC016C0EBE09E
:1011F000F1E080818E7F808381E08093F202809392
:10120000F3020BC0809127029091280201969093DF
:10121000280280932702049751F3FF91EF919F9149
:101220008F910F900BBE0F900FBE0F901F901895CF
:1012300078941F920F920FB60F9211240BB60F9253
:101240008F939F93EF93FF931092DD021092DC0235
:101250008091F1028823C9F08091EC0281110AC0CB
:1012600014C0EBE0F1E080818E7F808381E0809389
:10127000F2020BC080912702909128020196909370
:10128000280280932702049761F3FF91EF919F91C9
:101290008F910F900BBE0F900FBE0F901F9018955F
:1012A0001F920F920FB60F9211240BB60F928F93CD
:1012B0009F93EF93FF93019B08C0E6EBF2E08081E0
:1012C000918101969183808309C0019907C0E6EB63
:1012D000F2E080819181019791838083FF91EF916A
:1012E0009F918F910F900BBE0F900FBE0F901F908C
:1012F00018958EEB92E00E94EB0086EB92E04FC8CF
:101300000895E1E0F1E080818062808380818064E3
:101310008083269AE0E8F0E0808182628083E1E8C1
:10132000F0E080818A61808389EF90E0909387006C
:10133000809386000895E2E0F1E0808180628083FE
:1013400080818F7B80830895E2E0F1E080818F7D52
:1013500080838081806480830895E2E0F1E0808171
:101360008062808380818064808310928B001092E1
:101370008A0008950F931F93CF93DF938C01EB01A5
:101380001C161D060CF4D7DFC93FD10544F4DD233C
:1013900044F4D195C195D109C801D6DF02C0C9EF87
:1013A000D0E0D0938B00C0938A00DF91CF911F9142
:1013B0000F910895CF93DF93EC01A3DFCE01CDDF32
:1013C00060E070E0CE01D6DFDF91CF9108958F927B
:1013D0009F92AF92BF92CF92DF92EF92FF920F93C4
:1013E0001F93CF93DF93EC014A015B016801790100
:1013F0009A01AB01688179818A819B81E6D2882339
:1014000024F488829982AA82BB82A701960168810E
:1014100079818A819B8128D4181624F4C882D982C4
:10142000EA82FB82DF91CF911F910F91FF90EF90A5
:10143000DF90CF90BF90AF909F908F900895FC0168
:1014400011821282138214821582168217821086EC
:101450001186128613861486118E128E138E148EA8
:10146000158616861786108A15A216A217A210A630
:1014700011A612A613A614A616A615A681E08083AF
:101480000895CF92DF92EF92FF920F931F93FC018A
:101490004183528363837483058316832783308754
:1014A000C186D286E386F4861F910F91FF90EF905C
:1014B000DF90CF9008954F925F926F927F928F92BC
:1014C0009F92AF92BF92CF92DF92EF92FF920F93D3
:1014D0001F93CF93DF93EC016A017B016DA57EA57D
:1014E000072E000C880B990B0FD3A701960108D289
:1014F0004B015C01698F7A8F8B8F9C8F2D813E8190
:101500004F815885B5D329A13AA14BA15CA1F9D14E
:101510002B013C0169A37AA38BA39CA329813A8167
:101520004B815C81C501B401A3D39B01AC01C30114
:10153000B201E7D14B015C012DA13EA14FA158A5FD
:10154000C701B601DDD129853A854B855C8590D3ED
:101550009B01AC01C501B401D3D16D8F7E8F8F8FFC
:1015600098A309891A892B893C894D895E896F89DD
:10157000788DCE014D962BDFCDA2DEA2EFA2F8A68C
:101580006D8D7E8D8F8D98A1DF91CF911F910F91E1
:10159000FF90EF90DF90CF90BF90AF909F908F9093
:1015A0007F906F905F904F9008951F920F920FB6AB
:1015B0000F9211240BB60F922F938F939F93EF935B
:1015C000FF938091C0002091C6008871E09188034C
:1015D000EF5FEF7190918703E91739F0E09388038B
:1015E000F0E0E557FC4F208301C082E08093860342
:1015F000FF91EF919F918F912F910F900BBE0F90C4
:101600000FBE0F901F9018951F920F920FB60F925A
:1016100011240BB60F928F939F93EF93FF939091AA
:101620008A0380918903981769F0E0918903EF5F3D
:10163000EF71E0938903F0E0E555FC4F80818093E2
:10164000C60005C0E1ECF0E080818F7D8083FF91D2
:10165000EF919F918F910F900BBE0F900FBE0F9047
:101660001F9018951F920F920FB60F9211240BB670
:101670000F922F938F939F93EF93FF938091D000BE
:101680002091D6008871E0914303EF5FEF71909154
:101690004203E91739F0E0934303F0E0EA5BFC4FC3
:1016A000208301C082E080934103FF91EF919F91DD
:1016B0008F912F910F900BBE0F900FBE0F901F9028
:1016C00018951F920F920FB60F9211240BB60F921E
:1016D0008F939F93EF93FF939091450380914403E1
:1016E000981769F0E0914403EF5FEF71E0934403D2
:1016F000F0E0EA59FC4F80818093D60005C0E1ED0F
:10170000F0E080818F7D8083FF91EF919F918F9199
:101710000F900BBE0F900FBE0F901F901895109258
:1017200045031092440310924303109242039923FD
:1017300024F422E02093D0009F779093D5008093EB
:10174000D40088E98093D10086E08093D200089588
:101750009091430380914203981791F0E0914203E6
:10176000EF5FEF71E0934203F0E0EA5BFC4F208112
:101770008091410390E0982F8827820F911D089552
:1017800080E091E00895209145032F5F2F719091A3
:1017900044032917E1F3E22FF0E0EA59FC4F80837C
:1017A00020934503E1EDF0E080818062808308951D
:1017B0000F931F93CF93DF93CDB7DEB72F970FB65D
:1017C000F894DEBF0FBECDBF4AE0BE016F5F7F4F12
:1017D000BAD28981882349F08E010E5F1F4FD3DF73
:1017E000F80181918F018111FACF2F960FB6F894ED
:1017F000DEBF0FBECDBFDF91CF911F910F91089536
:10180000CF93DF93EC018881882329F02196BBDFF9
:1018100089918111FCCFDF91CF9108951F920F9292
:101820000FB60F9211240BB60F922F938F939F93A5
:10183000EF93FF9380913001209136018871E09100
:10184000FE02EF5FEF719091FD02E91739F0E0932E
:10185000FE02F0E0EF5FFC4F208301C082E0809346
:10186000FC02FF91EF919F918F912F910F900BBEF2
:101870000F900FBE0F901F9018951F920F920FB6EA
:101880000F9211240BB60F928F939F93EF93FF93B8
:10189000909100038091FF02981769F0E091FF0298
:1018A000EF5FEF71E093FF02F0E0EF5DFC4F8081AE
:1018B0008093360105C0E1E3F1E080818F7D808374
:1018C000FF91EF919F918F910F900BBE0F900FBEE4
:1018D0000F901F901895209100032F5F2F7190910A
:1018E000FF022917E1F3E22FF0E0EF5DFC4F808368
:1018F00020930003E1E3F1E080818062808308951A
:101900005058BB27AA270ED075C166D130F06BD1D5
:1019100020F031F49F3F11F41EF45BC10EF4E0950A
:10192000E7FB51C1E92F77D180F3BA17620773073C
:101930008407950718F071F49EF58FC10EF4E095B9
:101940000B2EBA2FA02D0B01B90190010C01CA0179
:10195000A0011124FF27591B99F0593F50F4503E24
:1019600068F11A16F040A22F232F342F4427585F16
:10197000F3CF469537952795A795F0405395C9F72E
:101980007EF41F16BA0B620B730B840BBAF09150E6
:10199000A1F0FF0FBB1F661F771F881FC2F70EC085
:1019A000BA0F621F731F841F48F487957795679558
:1019B000B795F7959E3F08F0B3CF9395880F08F041
:1019C0009927EE0F979587950895D9D008F481E06F
:1019D00008950CD00FC107D140F0FED030F021F4B3
:1019E0005F3F19F0F0C0511139C1F3C014D198F321
:1019F0009923C9F35523B1F3951B550BBB27AA2790
:101A000062177307840738F09F5F5F4F220F331F01
:101A1000441FAA1FA9F333D00E2E3AF0E0E830D0CD
:101A200091505040E695001CCAF729D0FE2F27D0D0
:101A3000660F771F881FBB1F261737074807AB079E
:101A4000B0E809F0BB0B802DBF01FF2793585F4F13
:101A50002AF09E3F510568F0B6C000C15F3FECF32D
:101A6000983EDCF3869577956795B795F7959F5FD8
:101A7000C9F7880F911D9695879597F90895E1E02C
:101A8000660F771F881FBB1F621773078407BA078B
:101A900020F0621B730B840BBA0BEE1F88F7E095E6
:101AA000089504D06894B111D9C00895BCD088F0CD
:101AB0009F5790F0B92F9927B751A0F0D1F0660F3A
:101AC000771F881F991F1AF0BA95C9F712C0B13055
:101AD00081F0C3D0B1E00895C0C0672F782F882768
:101AE000B85F39F0B93FCCF3869577956795B39594
:101AF000D9F73EF490958095709561957F4F8F4F03
:101B00009F4F0895E89409C097FB3EF49095809507
:101B1000709561957F4F8F4F9F4F9923A9F0F92FB3
:101B200096E9BB279395F695879577956795B79531
:101B3000F111F8CFFAF4BB0F11F460FF1BC06F5F17
:101B40007F4F8F4F9F4F16C0882311F096E911C029
:101B5000772321F09EE8872F762F05C0662371F04A
:101B600096E8862F70E060E02AF09A95660F771F5E
:101B7000881FDAF7880F9695879597F90895990F3A
:101B80000008550FAA0BE0E8FEEF16161706E80747
:101B9000F907C0F012161306E407F50798F0621B68
:101BA000730B840B950B39F40A2661F0232B242B3D
:101BB000252B21F408950A2609F4A140A6958FEF5C
:101BC000811D811D089597F99F6780E870E060E0AE
:101BD00008959FEF80EC089500240A9416161706C6
:101BE00018060906089500240A941216130614060E
:101BF00005060895092E0394000C11F4882352F071
:101C0000BB0F40F4BF2B11F460FF04C06F5F7F4F28
:101C10008F4F9F4F089557FD9058440F551F59F00F
:101C20005F3F71F04795880F97FB991F61F09F3FC9
:101C300079F087950895121613061406551FF2CFF2
:101C40004695F1DF08C0161617061806991FF1CF42
:101C500086957105610508940895E894BB27662769
:101C60007727CB0197F908958ADF08F48FEF08955D
:101C70000BD0C0CFB1DF28F0B6DF18F0952309F004
:101C8000A2CFA7CF1124EACFC6DFA0F3959FD1F34F
:101C9000950F50E0551F629FF001729FBB27F00D1A
:101CA000B11D639FAA27F00DB11DAA1F649F66276F
:101CB000B00DA11D661F829F2227B00DA11D621FBE
:101CC000739FB00DA11D621F839FA00D611D221F78
:101CD000749F3327A00D611D231F849F600D211D5C
:101CE000822F762F6A2F11249F5750408AF0E1F0FF
:101CF00088234AF0EE0FFF1FBB1F661F771F881F48
:101D000091505040A9F79E3F510570F05CCFA6CF8F
:101D10005F3FECF3983EDCF3869577956795B79532
:101D2000F795E7959F5FC1F7FE2B880F911D96955C
:101D3000879597F90895EE0FFF1F881F8BBF0790B7
:101D4000F691E02D1994BB274A3031F4992322F4FF
:101D5000BDE2909581959F4F01C0BB27FB015527A0
:101D6000AA27880F991FAA1FA41710F0A41B8395F8
:101D70005051B9F7A05DAA3308F0A95DA19300976F
:101D800079F7B111B1931192CB0100C0DC01FC01D4
:101D9000672F71917723E1F7329704C07C916D939F
:101DA00070836291AE17BF07C8F30895F894FFCF10
:101DB000014769766520436F6D6D616E6473212103
:041DC000210D0A00E7
:00000001FF
