:10000000B9C000000C94C3080C942A090C94EC08A5
:10001000E1C000000C946409DDC00000DBC00000FA
:10002000D9C00000D7C00000D5C00000D3C0000078
:10003000D1C00000CFC00000CDC0000022C200002F
:10004000C9C00000C7C00000C5C00000C3C0000098
:10005000C1C000000C949308BDC00000BBC00000EC
:10006000B9C000000C94E90A0C94180BB3C000004E
:10007000B1C00000AFC00000ADC00000ABC00000C8
:10008000A9C00000A7C00000A5C00000A3C00000D8
:10009000A1C000009FC000009DC000009BC00000E8
:1000A00099C0000097C0000095C0000093C00000F8
:1000B00091C000008FC000008DC000008BC0000008
:1000C00089C0000087C0000085C000000C94460B6A
:1000D0000C94750B7FC000000C94A30B0C94D20BF6
:1000E00079C000008104AC0433053F053F053F059E
:1000F0003F053F053F053F053F053F053F053F05E0
:100100003F053F053F053F053F053F053F053F05CF
:100110003F053F053F053F053F053F053F053F05BF
:100120003F053F053F053F053F053F053F053F05AF
:100130003F053F053F053F053F053F053F053F059F
:100140003F053F053F053F053F0529053F053F05A5
:100150003F05ED041F050D057F043F051905130537
:100160000A053F053F050805D7043F053F053F0544
:1001700039058D0911241FBECFEFD1E2DEBFCDBFFF
:1001800000E00CBF12E0A0E0B2E0ECEDFCE100E02A
:100190000BBF02C007900D92A230B107D9F723E040
:1001A000A2E0B2E001C01D92AE3BB207E1F710E061
:1001B000CAEBD0E000E006C021970109802FFE01C4
:1001C0000E94640EC93BD10780E00807A9F7BAD2A4
:1001D0000C946C0E15CFFC01168A178A108E118EA6
:1001E000178E168E1182108211A210A213A212A2D3
:1001F000089585B5856085BD8BE987BDEEE6F0E0A5
:10020000808182608083A99A16BC0895E9E6F0E0B7
:10021000808182608083E89AE09A0895CF93DF938B
:10022000EC0150980898F2DFCE01E3DFDF91CF9127
:100230000895FC01009B1CC086899789A08DB18D13
:100240000197A109B109868B978BA08FB18F828D01
:10025000938DA48DB58D0197A109B109828F938FDC
:10026000A48FB58F868D978D0197978F868F089570
:1002700000991BC086899789A08DB18D0196A11D1B
:10028000B11D868B978BA08FB18F828D938DA48D9E
:10029000B58D0196A11DB11D828F938FA48FB58F4F
:1002A000868D978D0196978F868F0895CF93DF93D4
:1002B000EC016E8D7F8D072E000C880B990B0E9430
:1002C0004D0D21E830E840E85AE30E94010E20E09D
:1002D00030E044EB53E40E94010E0E941A0D798332
:1002E0006883CB01DF91CF910895CF92DF92EF9297
:1002F000FF920F931F93FC0102851385248535859A
:1003000006871787208B318BC680D780E084F184E5
:10031000C286D386E486F5864281538164817581E5
:10032000468357836087718786899789A08DB18DB1
:1003300082839383A483B583480F591F6A1F7B1F51
:10034000D701C601840F951FA61FB71F800F911FED
:10035000A21FB31FB595A79597958795B595A795B6
:1003600097958795828B938BA48BB58B168A178A6A
:10037000108E118E1F910F91FF90EF90DF90CF9014
:1003800008956C9809986C98749A0998119AEAE6FD
:10039000F0E0808182608083EC9AE49A0895FC0109
:1003A00011821082EECF0895CF93DF93EC01688124
:1003B0007981072E000C880B990B0E944D0D20E0CF
:1003C00030E044E353E40E94B20C20E030E044EB20
:1003D00053E40E94010E0E941A0D7F836E83CB01AD
:1003E000DF91CF910895249A279A259AE0E8F0E0CA
:1003F000808182688083E1E8F0E080818A61808387
:1004000089EF90E0909387008093860008952C9A5E
:100410002F9808952C982F9A08952C9A2F9A10921D
:1004200089001092880008950F931F93CF93DF9354
:100430008C01EB011C161D060CF4E9DFC93FD10548
:1004400044F4DD2344F4D195C195D109C801E2DF1C
:1004500002C0C9EFD0E0D0938900C0938800DF913B
:10046000CF911F910F910895CF93DF93EC01BBDFE4
:10047000CE01D3DF60E070E0CE01D6DFDF91CF9117
:1004800008951F920F920FB60F9211248F939F938E
:10049000AF93BF938091EB029091EC02A091ED029B
:1004A000B091EE020196A11DB11D8093EB029093D5
:1004B000EC02A093ED02B093EE028091E7029091DE
:1004C000E802A091E902B091EA020396A11DB11DD4
:1004D0008093E7029093E802A093E902B093EA02C6
:1004E0008091E7029091E802A091E902B091EA02BE
:1004F0008D379105A105B10538F18091E702909102
:10050000E802A091E902B091EA028D579109A10990
:10051000B1098093E7029093E802A093E902B093B7
:10052000EA028091EB029091EC02A091ED02B09171
:10053000EE020196A11DB11D8093EB029093EC0297
:10054000A093ED02B093EE02BF91AF919F918F9176
:100550000F900FBE0F901F9018952FB7F8946091D1
:10056000EB027091EC028091ED029091EE022FBFB0
:100570000895E1EBF0E0808184608083E0E7F0E0C3
:100580008081816080831092B200089581E0809321
:10059000DD0280ED92E09093490280934802089535
:1005A0005198599AE9E6F0E0808180628083EA9A66
:1005B000E29A089552985A9AE9E6F0E080818860BC
:1005C0008083E99AE19A0895EBDFF4DF84ED92E00D
:1005D00005D780EB92E022DE85ED92E045DF88EAE8
:1005E00092E0CFCE0895CF93DF9378944A9907C0D5
:1005F00064EC7FEF84ED92E0D1D64A9BF9CFC0EB5B
:10060000D2E01F8E1E8E84ED92E0BBD610921A02AD
:10061000109219021A8E1B8E1C8E1D8EE9E7F2E0D5
:1006200016A615A68E8D9F8D9093780280937702E3
:100630001092000215A216A217A210A6158E168EF1
:10064000178E10A211A212A213A214A2DF91CF91B1
:100650000895CF93DF9378944B9909C06EEC7FEFA8
:1006600084ED92E09BD61092D8024B9BF7CFC0EB63
:10067000D2E01F8E1E8E84ED92E083D610921A0275
:10068000109219021A8E1B8E1C8E1D8EE9E7F2E065
:1006900016A615A610927802109277021092000208
:1006A00015A216A217A210A611A212A213A214A29A
:1006B000158E168E178E10A281E08093D70280913E
:1006C000D902811110C08091D60281110CC081E045
:1006D0008093D60242DF60931502709316028093D6
:1006E000170290931802DF91CF91089581E08093D3
:1006F000DF021092E1021092E00220ED3FEF309312
:100700000F0220930E028093E402809300028093F4
:10071000E30280911202909113029093A7028093BA
:10072000A60210921A02109219021092CA02109296
:10073000CB021092CC021092CD021092D802469AAF
:10074000409A0895CF93DF93CDB7DEB72F970FB6BA
:10075000F894DEBF0FBECDBFEAE0F1E0808181609A
:100760008083EBE0F1E08081816080839A9AA29897
:10077000989AA0983E9A389A27DFFBDE89E792E0A4
:1007800072D6E9E7F2E00F2E412C512CF9E76F2EDB
:10079000F3EC7F2EF02D458A568A678A708E0F2ED5
:1007A000812C912CF9E7AF2EF3E4BF2EF02D818A36
:1007B000928AA38AB48A0F2EF6E6CF2EDC2CF6E0BE
:1007C000EF2EF1E4FF2EF02D0AEB19E42CEC3EE3C2
:1007D00043E353E363E870E4CF0167D68AE492E031
:1007E00042D60F2EFAE42F2EF2E03F2EF02DF1012B
:1007F000458A568A678A708E818A928AA38AB48AC9
:100800000F2EFBE1CF2EFFE2DF2EFBE0EF2EF1E417
:10081000FF2EF02D0AE017ED23EA3DE349E25CE507
:100820006FE570E4C10141D68BE192E01CD6EBE1AB
:10083000F2E0458A568A678A708E818A928AA38AF4
:10084000B48A0F2EC12CD12CF0E9EF2EF1E4FF2E4B
:10085000F02D00E010E0980140E050E060ED71E420
:10086000CF0123D6789489E190E0CAD78FE39CE941
:100870000197F1F700C00000B6DE8FE090E0F101D3
:1008800096A785A784EC9FEF90930F0280930E02AA
:1008900082EE9FEF9093130280931202412C512C11
:1008A0003201212C1A8218861F821D8219821E8213
:1008B0001F861E861B861C861D8619861A861C822C
:1008C0001B82332433940F2EFBE1AF2EF2E0BF2EB8
:1008D000F02D0F2EF6E08F2EF2E09F2EF02DA9D7EF
:1008E0008093140290E0FC01F197E734F10508F0E1
:1008F000C6C08827EE58FF4F8F4F0C94640E232CF0
:10090000BEC03092E1021092E0021092DF0280EC51
:100910009FEF90930F0280930E023092E402309288
:1009200000021092DD023092E30280911202909157
:1009300013029093A7028093A60210921A021092BB
:1009400019021092CA021092CB021092CC0210929D
:10095000CD02469A409A93C03092E0021092E10292
:100960001092DF021092DD02E4ECFFEFF0930F0231
:10097000E0930E023092E402309200023092E302E1
:1009800080911202909113029093A7028093A60285
:1009900010921A02109219021092CA021092CB02FF
:1009A0001092CC021092CD02469A409A68C01092E2
:1009B000E402309200021092A7021092A60284ED87
:1009C00092E0DFD4109213021092120210921A02D7
:1009D000109219021092E30252C00F2EFCE9CF2EA2
:1009E000F4ECDF2EFCEDEF2EF0E4FF2EF02D00E016
:1009F00010E0980143E353E363E271E48AE492E098
:100A000054D5EBE0F1E080818E7F808322DE37C019
:100A1000BDDD35C03092DC0232C03092DA02309255
:100A2000DB023A822CC0EBE0F1E0808181608083C0
:100A300026C0EBE0F1E080818E7F808320C0809132
:100A40000E0290910F02019690930F0280930E0276
:100A500016C080910E0290910F02019790930F02A1
:100A600080930E020CC03092D9023092DB023A829F
:100A700006C08091E202811102C03092DE02109223
:100A800014028091D6028823B9F067DD0091150227
:100A9000109116022091170230911802DC01CB014F
:100AA000801B910BA20BB30B8C3B9240A105B105AF
:100AB00018F0A29A1092D6028091DC028823F1F0FD
:100AC0002E81211175C28981811118C09D819111DA
:100AD00015C0EF81E11112C0F885F1110FC0A29885
:100AE0003CDD2B013C0164C2A09A1092DC02809193
:100AF000DE0281110CC039823E8265C08091DE0227
:100B0000882309F460C02981222381F001C03E823C
:100B10008D8181115CC29F81911121C0E885E11115
:100B200020C0A29A1ADD2B013C0151C2FD81FF2396
:100B3000D9F013DDDC01CB0184199509A609B709A9
:100B400084389340A105B10570F0EBE0F1E08081BD
:100B50008160808302DD2B013C011D8208C0398247
:100B600003C0398201C03D82FF81FF2399F0F5DC8B
:100B7000DC01CB0184199509A609B709883C9105C8
:100B8000A105B10530F0A098E8DC2B013C011F82E3
:100B900004C03F8228852223B1F0DFDCDC01CB01D9
:100BA00084199509A609B70986399105A105B105EA
:100BB00048F0A2981092DE0218861F821D821982C8
:100BC0001E8201C0388688EA92E0EEDB99231CF48D
:100BD000919581959109803D924094F085ED92E048
:100BE0001CDC1092A9021092A802F50116A615A607
:100BF00011A212A213A214A2158E168E178E10A285
:100C00002110C4DC8091DA02882311F1FA81FF23DC
:100C100029F0BCDCA2DC2B013C01212C8091DB0201
:100C2000882399F09ADCDC01CB0184199509A60987
:100C3000B70980329340A105B10548F0A2981092FF
:100C4000DB021092DA021A8203C01A8201C01A82F1
:100C50008091D902882309F4CFC08091100290912D
:100C6000110206970CF0C8C08091120290911302F5
:100C70004E9609F0C1C08091D8028111AAC1BCC0B2
:100C8000FA85F11117C02985211127C08C858111A2
:100C900024C09D85911121C0EE85E1111EC0FF8504
:100CA000F1111BC05ADC2B013C0104C02A85222310
:100CB00009F434C252DCDC01CB0184199509A60980
:100CC000B709883C9105A105B10530F0A09A45DC33
:100CD0002B013C011A8604C03A868985882399F045
:100CE0003CDCDC01CB0184199509A609B7098639DA
:100CF0009105A105B10530F0A29A2FDC2B013C0132
:100D0000198604C039869B85992391F026DCDC0185
:100D1000CB0184199509A609B709C297A105B105A8
:100D200030F034DC1ADC2B013C011B8604C03B860E
:100D3000EF85EE23B9F011DCDC01CB0184199509B4
:100D4000A609B70980329340A105B10550F0EBE048
:100D5000F1E080818160808300DC2B013C011F86F3
:100D600004C03F86FD85FF2399F0F7DBDC01CB0152
:100D700084199509A609B7098C329140A105B105DE
:100D800030F0A098EADB2B013C011D8604C03D86B3
:100D90008C858823A9F0E1DBDC01CB01841995095E
:100DA000A609B7098C329140A105B10540F0A2987F
:100DB000D4DB2B013C0180E757D51C8604C03C8660
:100DC000FE85FF23C9F0C9DBDC01CB01841995093D
:100DD000A609B709843F9140A105B10560F0809153
:100DE00010029091110201969093110280931002CB
:100DF0007DDC1E8601C03E868091E3028823C1F11E
:100E00008091190290911A0205970CF4E6C030C047
:100E10008091120290911302039790931302809392
:100E200012025C834B834091120250911302509343
:100E3000A7024093A6023092000280910E02909188
:100E40000F029A01552324F422273327241B350B44
:100E5000AC01992324F444275527481B590B42170A
:100E6000530734F490931302809312021092E3021A
:100E70008091E502882309F45FC080911902909166
:100E80001A0206970CF0C1C057C0809112029091CF
:100E90001302039690931302809312025C834B8398
:100EA00080911202909113029093A7028093A60260
:100EB000309200028091190290911A0206978CF0EC
:100EC0008091E602882369F08091E102811104C0DB
:100ED0008091E002882329F08091DF02882309F4C1
:100EE000ACC0809112029091130291958195910965
:100EF000099714F584E6B8D41092E4021092E50242
:100F000010921302109212023092E20210921A0210
:100F1000109219021092CA021092CB021092CC02C7
:100F20001092CD021092E1021092E0021092DF02C4
:100F3000469840981C821B82E9E7F2E08081882372
:100F400021F08091000281117DC080914A028823A6
:100F5000F1F08091000281111AC08AC080910402D0
:100F60009091050201969093050280930402C39725
:100F700034F40BC0109205021092040206C01092C5
:100F80000502109204023092D80210924A02F50132
:100F90008081882321F08091DD028111A2C080919F
:100FA000E50281119CCC8091E2028111ADC097CC09
:100FB000D4DADC01CB0184199509A609B70980327E
:100FC0009340A105B10508F08FCD3E8297CD3982BF
:100FD000B0CD2B8521116ACE53CE4091CA025091DB
:100FE000CB026091CC027091CD029A018B819C81E1
:100FF000281B390BC901992324F488279927821BC0
:10100000930B88970CF004CF0ECF4091CA025091F9
:10101000CB026091CC027091CD029A01EB81FC81F0
:101020002E1B3F0BC901992324F488279927821B83
:10103000930BC2970CF029CF33CF87E615D41092CB
:10104000E6024FCF6091C2027091C302072E000CDE
:10105000880B990B22D5AB01BC0189E792E03FD206
:10106000E9D484ED92E09AD1E9E7F2E010826DCF05
:1010700080EB92E01BD9BC01990F880B990B0DD521
:10108000AB01BC018AE492E02AD2D4D484ED92E090
:1010900085D1F401448155815783468362817381F0
:1010A0007583648320813181338322838091C602DA
:1010B0009091C70299231CF4919581959109F401AF
:1010C00091838083280F391FCB01820F931F840FD8
:1010D000951F9093030280930202892B09F43ECF5F
:1010E00049CF88EA92E060D9BC01990F880B990B2F
:1010F000D4D4AB01BC01C501F2D19CD485ED92E002
:1011000093D9F50110824BCFA4DA82EE9FEF909332
:101110001302809312021092E202E1CB9985992387
:1011200009F4F4CDDDCD1F920F920FB60F9211246A
:101130000BB60F922F933F934F935F936F937F93D1
:101140008F939F93AF93BF93EF93FF9381E080932F
:10115000790280934A0280931B0280EB92E0C5D80B
:10116000FF91EF91BF91AF919F918F917F916F917F
:101170005F914F913F912F910F900BBE0F900FBE3B
:101180000F901F9018951F920F920FB60F92112477
:101190000BB60F922F933F934F935F936F937F9371
:1011A0008F939F93AF93BF93EF93FF9380EB92E066
:1011B00040D8FF91EF91BF91AF919F918F917F9117
:1011C0006F915F914F913F912F910F900BBE0F90B8
:1011D0000FBE0F901F90189578941F920F920FB624
:1011E0000F9211240BB60F928F939F93EF93FF935F
:1011F0001092CF021092CE028091E4028823F9F07F
:101200008091E102811110C08091E00281110CC037
:1012100016C0EBE0F1E080818E7F808381E08093D7
:10122000E5028093E6020BC08091190290911A02A8
:10123000019690931A0280931902049751F3FF913B
:10124000EF919F918F910F900BBE0F900FBE0F905B
:101250001F90189578941F920F920FB60F92112439
:101260000BB60F928F939F93EF93FF931092CF0241
:101270001092CE028091E4028823D9F08091DF029F
:1012800081110CC016C0EBE0F1E080818E7F80837D
:1012900081E08093E5028093E6020BC08091190201
:1012A00090911A02019690931A0280931902049762
:1012B00051F3FF91EF919F918F910F900BBE0F9083
:1012C0000FBE0F901F9018951F920F920FB60F929E
:1012D00011240BB60F928F939F93EF93FF93019B73
:1012E00008C0E8EAF2E080819181019691838083D1
:1012F00009C0019907C0E8EAF2E080819181019775
:1013000091838083FF91EF919F918F910F900BBEFE
:101310000F900FBE0F901F90189580EB92E00E94E7
:10132000EB0088EA92E03BC80895E1E0F1E08081BB
:1013300080628083808180648083269AE0E8F0E088
:10134000808182628083E1E8F0E080818A6180832D
:1013500089EF90E090938700809386000895E2E003
:10136000F1E080818062808380818F7B808308951B
:10137000E2E0F1E080818F7D8083808180648083E2
:101380000895E2E0F1E08081806280838081806462
:10139000808310928B0010928A0008950F931F9300
:1013A000CF93DF938C01EB011C161D060CF4D7DFE5
:1013B000C93FD10544F4DD2344F4D195C195D10949
:1013C000C801D6DF02C0C9EFD0E0D0938B00C09334
:1013D0008A00DF91CF911F910F910895CF93DF93F2
:1013E000EC01A3DFCE01CDDF60E070E0CE01D6DFFF
:1013F000DF91CF9108958F929F92AF92BF92CF923B
:10140000DF92EF92FF920F931F93CF93DF93EC0144
:101410004A015B01680179019A01AB016881798118
:101420008A819B819BD2882324F488829982AA8214
:10143000BB82A7019601688179818A819B81DDD376
:10144000181624F4C882D982EA82FB82DF91CF91F8
:101450001F910F91FF90EF90DF90CF90BF90AF90D2
:101460009F908F900895FC01118212821382148242
:1014700015821682178210861186128613861486AC
:10148000118E128E138E148E158616861786108A6C
:1014900015A216A217A210A611A612A613A614A68C
:1014A00016A615A681E080830895CF92DF92EF9271
:1014B000FF920F931F93FC014183528363837483D4
:1014C0000583168327833087C186D286E386F48618
:1014D0001F910F91FF90EF90DF90CF9008954F9262
:1014E0005F926F927F928F929F92AF92BF92CF92B4
:1014F000DF92EF92FF920F931F93CF93DF93EC0154
:101500006A017B016DA57EA5072E000C880B990B47
:10151000C4D2A7019601BDD14B015C01698F7A8FBE
:101520008B8F9C8F2D813E814F8158856AD329A155
:101530003AA14BA15CA1AED12B013C0169A37AA3D6
:101540008BA39CA329813A814B815C81C501B401A5
:1015500058D39B01AC01C301B2019CD14B015C018A
:101560002DA13EA14FA158A5C701B60192D1298551
:101570003A854B855C8545D39B01AC01C501B4011F
:1015800088D16D8F7E8F8F8F98A309891A892B89B7
:101590003C894D895E896F89788DCE014D962BDF10
:1015A000CDA2DEA2EFA2F8A66D8D7E8D8F8D98A1C3
:1015B000DF91CF911F910F91FF90EF90DF90CF902F
:1015C000BF90AF909F908F907F906F905F904F9063
:1015D00008951F920F920FB60F9211240BB60F921F
:1015E0002F938F939F93EF93FF938091C00020914F
:1015F000C6008871E0917B03EF5FEF7190917A03F1
:10160000E91739F0E0937B03F0E0E258FC4F2083C8
:1016100001C082E080937903FF91EF919F918F91B8
:101620002F910F900BBE0F900FBE0F901F9018952B
:101630001F920F920FB60F9211240BB60F928F9339
:101640009F93EF93FF9390917D0380917C03981774
:1016500069F0E0917C03EF5FEF71E0937C03F0E0D1
:10166000E256FC4F80818093C60005C0E1ECF0E0BB
:1016700080818F7D8083FF91EF919F918F910F905B
:101680000BBE0F900FBE0F901F9018951F920F92D8
:101690000FB60F9211240BB60F922F938F939F9337
:1016A000EF93FF938091D0002091D6008871E09154
:1016B0003603EF5FEF7190913503E91739F0E0934E
:1016C0003603F0E0E75CFC4F208301C082E08093AA
:1016D0003403FF91EF919F918F912F910F900BBE4B
:1016E0000F900FBE0F901F9018951F920F920FB67C
:1016F0000F9211240BB60F928F939F93EF93FF934A
:101700009091380380913703981769F0E09137037F
:10171000EF5FEF71E0933703F0E0E75AFC4F808111
:101720008093D60005C0E1EDF0E080818F7D80835D
:10173000FF91EF919F918F910F900BBE0F900FBE75
:101740000F901F9018951F920F920FB60F921124B1
:101750000BB60F922F938F939F93EF93FF938091EC
:101760003001209136018871E091F102EF5FEF7155
:101770009091F002E91739F0E093F102F0E0EC50BB
:10178000FD4F208301C082E08093EF02FF91EF9133
:101790009F918F912F910F900BBE0F900FBE0F90C6
:1017A0001F9018951F920F920FB60F9211240BB62F
:1017B0000F928F939F93EF93FF939091F3028091F9
:1017C000F202981769F0E091F202EF5FEF71E09397
:1017D000F202F0E0EC5EFC4F80818093360105C0A0
:1017E000E1E3F1E080818F7D8083FF91EF919F9114
:1017F0008F910F900BBE0F900FBE0F901F901895FA
:101800001092F3021092F2021092F1021092F00282
:10181000992324F426E0209330019F77909335019B
:101820008093340188E98093310186E0809332010E
:1018300008959091F1028091F002981791F0E09153
:10184000F002EF5FEF71E093F002F0E0EC50FD4F3B
:1018500020818091EF0290E0982F8827820F911DC0
:10186000089580E091E008952091F3022F5F2F7199
:101870009091F2022917E1F3E22FF0E0EC5EFC4FC9
:1018800080832093F302E1E3F1E080818062808332
:1018900008955058BB27AA270ED075C166D130F0E5
:1018A0006BD120F031F49F3F11F41EF45BC10EF4B4
:1018B000E095E7FB51C1E92F77D180F3BA176207B2
:1018C00073078407950718F071F49EF58FC10EF425
:1018D000E0950B2EBA2FA02D0B01B90190010C0140
:1018E000CA01A0011124FF27591B99F0593F50F458
:1018F000503E68F11A16F040A22F232F342F4427B0
:10190000585FF3CF469537952795A795F0405395A7
:10191000C9F77EF41F16BA0B620B730B840BBAF077
:101920009150A1F0FF0FBB1F661F771F881FC2F7E2
:101930000EC0BA0F621F731F841F48F487957795F6
:101940006795B795F7959E3F08F0B3CF9395880FAD
:1019500008F09927EE0F979587950895D9D008F448
:1019600081E008950CD00FC107D140F0FED030F0D7
:1019700021F45F3F19F0F0C0511139C1F3C014D107
:1019800098F39923C9F35523B1F3951B550BBB2746
:10199000AA2762177307840738F09F5F5F4F220FF3
:1019A000331F441FAA1FA9F333D00E2E3AF0E0E8EC
:1019B00030D091505040E695001CCAF729D0FE2F38
:1019C00027D0660F771F881FBB1F261737074807CA
:1019D000AB07B0E809F0BB0B802DBF01FF27935880
:1019E0005F4F2AF09E3F510568F0B6C000C15F3FCF
:1019F000ECF3983EDCF3869577956795B795F79568
:101A00009F5FC9F7880F911D9695879597F908955F
:101A1000E1E0660F771F881FBB1F621773078407FB
:101A2000BA0720F0621B730B840BBA0BEE1F88F70A
:101A3000E095089504D06894B111D9C00895BCD040
:101A400088F09F5790F0B92F9927B751A0F0D1F0A7
:101A5000660F771F881F991F1AF0BA95C9F712C031
:101A6000B13081F0C3D0B1E00895C0C0672F782FA6
:101A70008827B85F39F0B93FCCF38695779567959D
:101A8000B395D9F73EF490958095709561957F4F09
:101A90008F4F9F4F0895E89409C097FB3EF49095AF
:101AA0008095709561957F4F8F4F9F4F9923A9F037
:101AB000F92F96E9BB279395F695879577956795C6
:101AC000B795F111F8CFFAF4BB0F11F460FF1BC00A
:101AD0006F5F7F4F8F4F9F4F16C0882311F096E99D
:101AE00011C0772321F09EE8872F762F05C066234B
:101AF00071F096E8862F70E060E02AF09A95660F04
:101B0000771F881FDAF7880F9695879597F90895BC
:101B1000990F0008550FAA0BE0E8FEEF16161706FE
:101B2000E807F907C0F012161306E407F50798F066
:101B3000621B730B840B950B39F40A2661F0232B7F
:101B4000242B252B21F408950A2609F4A140A695FB
:101B50008FEF811D811D089597F99F6780E870E0E0
:101B600060E008959FEF80EC089500240A94161613
:101B7000170618060906089500240A94121613067B
:101B8000140605060895092E0394000C11F4882309
:101B900052F0BB0F40F4BF2B11F460FF04C06F5F25
:101BA0007F4F8F4F9F4F089557FD9058440F551FFB
:101BB00059F05F3F71F04795880F97FB991F61F0CF
:101BC0009F3F79F087950895121613061406551F46
:101BD000F2CF4695F1DF08C0161617061806991FB2
:101BE000F1CF86957105610508940895E894BB27A7
:101BF00066277727CB0197F908958ADF08F48FEFDE
:101C000008950BD0C0CFB1DF28F0B6DF18F09523D0
:101C100009F0A2CFA7CF1124EACFC6DFA0F3959F8A
:101C2000D1F3950F50E0551F629FF001729FBB27C3
:101C3000F00DB11D639FAA27F00DB11DAA1F649F6F
:101C40006627B00DA11D661F829F2227B00DA11D22
:101C5000621F739FB00DA11D621F839FA00D611DA8
:101C6000221F749F3327A00D611D231F849F600DC9
:101C7000211D822F762F6A2F11249F5750408AF002
:101C8000E1F088234AF0EE0FFF1FBB1F661F771F8E
:101C9000881F91505040A9F79E3F510570F05CCFCE
:101CA000A6CF5F3FECF3983EDCF38695779567957A
:101CB000B795F795E7959F5FC1F7FE2B880F911DAC
:101CC0009695879597F90895EE0FFF1F881F8BBF94
:0C1CD0000790F691E02D1994F894FFCFD6
:021CDC00010005
:00000001FF
