S01700004E65774E65774D656368616E69736D2E7372656324
S113000089C0000074C20000B3C00000B1C0000089
S1130010AFC00000ADC00000ABC00000A9C000002C
S1130020A7C00000A5C00000A3C00000A1C000003C
S11300309FC000009DC000009BC0000099C000004C
S113004097C0000095C0000093C0000091C000005C
S11300508FC000003DC200008BC0000089C00000BA
S113006087C00000F4C3000021C4000081C0000068
S11300707FC000007DC000007BC0000079C000008C
S113008077C0000075C0000073C0000071C000009C
S11300906FC000006DC000006BC0000069C00000AC
S11300A067C0000065C0000063C0000061C00000BC
S11300B05FC000005DC000005BC0000059C00000CC
S11300C057C0000055C0000053C0000081C40000A8
S11300D0AEC400004DC0000049C5000076C5000054
S11300E047C000000D02130246029F01ED014602C3
S11300F0460246028501460246024602460246027E
S113010046026B01B9014602070246024602460254
S1130110D301A00211241FBECFEFD1E2DEBFCDBFB9
S113012000E00CBF12E0A0E0B2E0E6E0F0E100E0A5
S11301300BBF02C007900D92A230B107D9F723E09C
S1130140A2E0B2E001C01D92A632B207E1F710E0CE
S1130150CAE8D0E000E005C021970109802FFE0124
S113016015D7C938D10780E00807B1F776D049C759
S113017047CFFC01168A178A108E118E128E138EA9
S1130180148E158E178E168E1182108211A210A253
S113019013A212A2089585B5856085BD8BE987BD3C
S11301A0EEE6F0E0808182608083A99A16BC08950F
S11301B0E9E6F0E0808182608083E89AE09A08951D
S11301C0CF93DF93EC0150980898F2DFCE01E3DF80
S11301D0DF91CF910895FC01009B11C0828D938D16
S11301E0A48DB58D0197A109B109828F938FA48F36
S11301F0B58F868D978D0197978F868F0895009977
S113020010C0828D938DA48DB58D0196A11DB11D55
S1130210828F938FA48FB58F868D978D0196978F3C
S1130220868F0895CF93DF93EC016E8D7F8D072E1B
S1130230000C880B990B93D521E830E840E85AE389
S113024042D620E030E044EB53E43DD655D57983E3
S11302506883CB01DF91CF91089586E592E0CDD1FB
S113026082E392E0ADDF83E092E00CD2E3E0F2E0DF
S113027080E090E0A9E7B3EC858B968BA78BB08FD9
S113028080E090E0A9E7B3E4818B928BA38BB48BDD
S1130290C12CD12C760197018601B701A601CF01AB
S11302A017D2789489E190E02FD387E690E0EDD3DC
S11302B0C3E0D2E003D480930202482F50E0FA0155
S11302C0E156F109E731F10508F0E0C08827EE585E
S11302D0FF4F8F4F5BC62DEC3CEC4CEC5DE369812A
S11302E07A818B819C81A0D4AB01BC0149835A8360
S11302F06B837C83C984DA84EB84FC840D811E8146
S11303002F813885CE01E4D1C1C02FE632E143E824
S11303105AE36D817E818F81988586D48B019C01FF
S11303206D837E838F839887C984DA84EB84FC840D
S113033049815A816B817C81CE01CAD1A7C02DEC41
S11303403CEC4CEC5DE369857A858B859C856CD4AB
S11303506B017C0169877A878B879C870D811E815D
S11303602F81388549815A816B817C81CE01B0D13E
S11303708DC02DEC3CEC4CEC5DE369817A818B8182
S11303809C8151D4AB01BC0149835A836B837C8328
S1130390C984DA84EB84FC840D811E812F81388525
S11303A0CE0196D173C02FE632E143E85AE36D8162
S11303B07E818F81988537D48B019C016D837E83E8
S11303C08F839887C984DA84EB84FC8449815A81B9
S11303D06B817C81CE017CD159C02DEC3CEC4CEC82
S11303E05DE369857A858B859C851DD46B017C01D1
S11303F069877A878B879C870D811E812F81388539
S113040049815A816B817C81CE0162D13FC08DA527
S11304109EA504969EA78DA739C08DA59EA5049779
S11304209EA78DA733C06D8D7E8D8F8D98A164D4CA
S1130430CB0174D380E25DD320E030E048EC52E499
S113044069817A818B819C813ED556D4CB0166D358
S113045080E24FD320E030E04AE754E46D817E81AE
S11304608F81988530D548D4CB0158D380E241D3CD
S113047020E030E04AE754E469857A858B859C85E1
S113048022D53AD4CB014AD380E233D3109202026C
S11304908881882381F082E392E0C4DEBC01990F55
S11304A0880B990B5CD4AB01BC01CE012BD124D4B5
S11304B086E592E082D08DA59EA554D280E23DD2FD
S11304C082E392E0AFDE4ED280E092E073D2F2CECD
S11304D01F920F920FB60F9211248F9381E0809395
S11304E003028F910F900FBE0F901F9018951F92CB
S11304F00F920FB60F9211240BB60F922F933F93C6
S11305004F935F936F937F938F939F93AF93BF9317
S1130510EF93FF9382E392E05EDEFF91EF91BF9150
S1130520AF919F918F917F916F915F914F913F9187
S11305302F910F900BBE0F900FBE0F901F90189528
S113054082E392E016CE0895E1E0F1E080818062DA
S11305508083808180648083269AE0E8F0E0808153
S113056082628083E1E8F0E080818A61808389EFA0
S113057090E090938700809386000895E2E0F1E094
S113058080818062808380818F7B80830895E2E014
S1130590F1E080818F7D80838081806480830895F1
S11305A0E2E0F1E0808180628083808180648083E6
S11305B010928B0010928A0008950F931F93CF938B
S11305C0DF938C01EB011C161D060CF4D7DFC93F29
S11305D0D10544F4DD2344F4D195C195D109C80172
S11305E0D6DF02C0C9EFD0E0D0938B00C0938A005D
S11305F0DF91CF911F910F910895CF93DF93EC0179
S1130600A3DFCE01CDDF60E070E0CE01D6DFDF9165
S1130610CF9108958F929F92AF92BF92CF92DF9223
S1130620EF92FF920F931F93CF93DF93EC014A0154
S11306305B01680179019A01AB01688179818A8142
S11306409B8156D3882324F488829982AA82BB8210
S1130650A7019601688179818A819B8130D418161B
S113066024F4C882D982EA82FB82DF91CF911F9160
S11306700F91FF90EF90DF90CF90BF90AF909F903D
S11306808F900895FC0111821282138214821582C4
S11306901682178210861186128613861486118E8E
S11306A0128E138E148E158616861786108A11A242
S11306B012A213A214A215A216A217A210A611A682
S11306C012A613A614A616A615A681E08083089583
S11306D0CF92DF92EF92FF920F931F93FC0141831D
S11306E05283638374830583168327833087C1868B
S11306F0D286E386F4861F910F91FF90EF90DF90EE
S1130700CF9008954F925F926F927F928F929F92B3
S1130710AF92BF92CF92DF92EF92FF920F931F930B
S1130720CF93DF93EC016A017B016DA57EA5072EB3
S1130730000C880B990B13D3A701960174D24B01BB
S11307405C01698F7A8F8B8F9C8F20E030E0A90148
S1130750CFD2811105C019A21AA21BA21CA212C0D9
S11307602D813E814F815885C501B401ACD39B01D5
S1130770AC0169A17AA18BA19CA156D269A37AA3E9
S11307808BA39CA300E010E028E432E440E050E0B6
S113079068E472ECCE0181963DDF4DA05EA06FA0AF
S11307A078A4898C9A8CAB8CBC8C20E030E0A901B5
S11307B0C501B4019DD2811105C01D8E1E8E1F8EF0
S11307C018A221C029813A814B815C81C501B40101
S11307D07AD329A13AA14BA15CA126D24B015C0199
S11307E0A3019201C701B6011ED229853A854B8522
S11307F05C8569D39B01AC01C501B40114D26D8F32
S11308007E8F8F8F98A309891A892B893C894D89FA
S11308105E896F89788DCE014D96FCDECDA2DEA275
S1130820EFA2F8A66D8D7E8D8F8D98A1DF91CF916B
S11308301F910F91FF90EF90DF90CF90BF90AF90FA
S11308409F908F907F906F905F904F9008951F922C
S11308500F920FB60F9211240BB60F922F938F9312
S11308609F93EF93FF938091C0002091C6008871FD
S1130870E091E302EF5FEF719091E202E91739F042
S1130880E093E302F0E0EA51FD4F208301C082E0EF
S11308908093E102FF91EF919F918F912F910F909F
S11308A00BBE0F900FBE0F901F9018951F920F92C2
S11308B00FB60F9211240BB60F928F939F93EF9361
S11308C0FF939091E5028091E402981769F0E0911A
S11308D0E402EF5FEF71E093E402F0E0EA5FFC4FC3
S11308E080818093C60005C0E1ECF0E080818F7DBB
S11308F08083FF91EF919F918F910F900BBE0F908A
S11309000FBE0F901F9018951092E5021092E4020A
S11309101092E3021092E202992324F422E020933D
S1130920C0009F779093C5008093C40088E98093AA
S1130930C10086E08093C20008952091E5022F5FF4
S11309402F719091E4022917E1F3E22FF0E0EA5FBE
S1130950FC4F80832093E502E1ECF0E0808180622B
S1130960808308950F931F93CF93DF93CDB7DEB7A2
S11309702F970FB6F894DEBF0FBECDBF4AE0BE017D
S11309806F5F7F4F0BD38981882349F08E010E5FFF
S11309901F4FD3DFF80181918F018111FACF2F9678
S11309A00FB6F894DEBF0FBECDBFDF91CF911F917C
S11309B00F910895CF93DF93EC018881882329F068
S11309C02196BBDF89918111FCCFDF91CF910895EE
S11309D01F920F920FB60F9211240BB60F922F9302
S11309E08F939F93EF93FF938091D0002091D60033
S11309F08871E0919E02EF5FEF7190919D02E9177B
S1130A0039F0E0939E02F0E0EF55FD4F208301C0E2
S1130A1082E080939C02FF91EF919F918F912F919F
S1130A200F900BBE0F900FBE0F901F9018951F9242
S1130A300F920FB60F9211240BB60F928F939F93C0
S1130A40EF93FF939091A00280919F02981769F011
S1130A50E0919F02EF5FEF71E0939F02F0E0EF53AC
S1130A60FD4F80818093D60005C0E1EDF0E08081E8
S1130A708F7D8083FF91EF919F918F910F900BBE9B
S1130A800F900FBE0F901F9018951092A002109215
S1130A909F0210929E0210929D02992324F422E058
S1130AA02093D0009F779093D5008093D40088E959
S1130AB08093D10086E08093D200089590919E02A5
S1130AC080919D02981791F0E0919D02EF5FEF7184
S1130AD0E0939D02F0E0EF55FD4F208180919C0250
S1130AE090E0982F8827820F911D089580E091E06F
S1130AF008952091A0022F5F2F7190919F022917D2
S1130B00E1F3E22FF0E0EF53FD4F80832093A00246
S1130B10E1EDF0E080818062808308950F931F935C
S1130B20CF93DF93CDB7DEB72F970FB6F894DEBF20
S1130B300FBECDBF4AE0BE016F5F7F4F2FD28981C8
S1130B40882349F08E010E5F1F4FD3DFF801819196
S1130B508F018111FACF2F960FB6F894DEBF0FBE26
S1130B60CDBFDF91CF911F910F9108951F920F92E6
S1130B700FB60F9211240BB60F922F938F939F935E
S1130B80EF93FF9380913001209136018871E091B9
S1130B905902EF5FEF7190915802E91739F0E09331
S1130BA05902F0E0E45AFD4F208301C082E08093B3
S1130BB05702FF91EF919F918F912F910F900BBE50
S1130BC00F900FBE0F901F9018951F920F920FB6A3
S1130BD00F9211240BB60F928F939F93EF93FF9371
S1130BE090915B0280915A02981769F0E0915A0241
S1130BF0EF5FEF71E0935A02F0E0E458FD4F80811B
S1130C008093360105C0E1E3F1E080818F7D80832C
S1130C10FF91EF919F918F910F900BBE0F900FBE9C
S1130C200F901F9018955058BB27AA270ED00DC1BE
S1130C30FED030F003D120F031F49F3F11F41EF4C4
S1130C40F3C00EF4E095E7FBE9C0E92F0FD180F380
S1130C50BA17620773078407950718F071F49EF5B5
S1130C6027C10EF4E0950B2EBA2FA02D0B01B9016C
S1130C7090010C01CA01A0011124FF27591B99F00E
S1130C80593F50F4503E68F11A16F040A22F232F1A
S1130C90342F4427585FF3CF469537952795A7956A
S1130CA0F0405395C9F77EF41F16BA0B620B730B11
S1130CB0840BBAF09150A1F0FF0FBB1F661F771F82
S1130CC0881FC2F70EC0BA0F621F731F841F48F437
S1130CD0879577956795B795F7959E3F08F0B3CFBD
S1130CE09395880F08F09927EE0F979587950895A7
S1130CF071D008F481E0089504D06894B111D9C08A
S1130D000895BCD088F09F5790F0B92F9927B75118
S1130D10A0F0D1F0660F771F881F991F1AF0BA95BB
S1130D20C9F712C0B13081F0C3D0B1E00895C0C09A
S1130D30672F782F8827B85F39F0B93FCCF38695B1
S1130D4077956795B395D9F73EF49095809570950E
S1130D5061957F4F8F4F9F4F0895E89409C097FB8B
S1130D603EF490958095709561957F4F8F4F9F4F7E
S1130D709923A9F0F92F96E9BB279395F6958795C2
S1130D8077956795B795F111F8CFFAF4BB0F11F485
S1130D9060FF1BC06F5F7F4F8F4F9F4F16C088232C
S1130DA011F096E911C0772321F09EE8872F762F62
S1130DB005C0662371F096E8862F70E060E02AF0A3
S1130DC09A95660F771F881FDAF7880F969587958F
S1130DD097F90895990F0008550FAA0BE0E8FEEF64
S1130DE016161706E807F907C0F012161306E407EB
S1130DF0F50798F0621B730B840B950B39F40A26E4
S1130E0061F0232B242B252B21F408950A2609F4C1
S1130E10A140A6958FEF811D811D089597F99F67C5
S1130E2080E870E060E008959FEF80EC089500246E
S1130E300A941616170618060906089500240A943B
S1130E4012161306140605060895092E0394000CC1
S1130E5011F4882352F0BB0F40F4BF2B11F460FF50
S1130E6004C06F5F7F4F8F4F9F4F089557FD905879
S1130E70440F551F59F05F3F71F04795880F97FB5A
S1130E80991F61F09F3F79F0879508951216130614
S1130E901406551FF2CF4695F1DF08C01616170643
S1130EA01806991FF1CF8695710561050894089578
S1130EB0E894BB2766277727CB0197F908958ADF43
S1130EC008F48FEF08950BD0C0CFB1DF28F0B6DF60
S1130ED018F0952309F0A2CFA7CF1124EACFC6DFDB
S1130EE0A0F3959FD1F3950F50E0551F629FF00139
S1130EF0729FBB27F00DB11D639FAA27F00DB11D92
S1130F00AA1F649F6627B00DA11D661F829F22271A
S1130F10B00DA11D621F739FB00DA11D621F839FA1
S1130F20A00D611D221F749F3327A00D611D231F77
S1130F30849F600D211D822F762F6A2F11249F57C5
S1130F4050408AF0E1F088234AF0EE0FFF1FBB1FE8
S1130F50661F771F881F91505040A9F79E3F510587
S1130F6070F05CCFA6CF5F3FECF3983EDCF3869540
S1130F7077956795B795F795E7959F5FC1F7FE2B32
S1130F80880F911D9695879597F90895EE0FFF1F89
S1130F90881F8BBF0790F691E02D1994BB274A3028
S1130FA031F4992322F4BDE2909581959F4F01C0BD
S1130FB0BB27FB015527AA27880F991FAA1FA4172F
S1130FC010F0A41B83955051B9F7A05DAA3308F023
S1130FD0A95DA193009779F7B111B1931192CB0157
S1130FE000C0DC01FC01672F71917723E1F7329790
S1130FF004C07C916D9370836291AE17BF07C8F3F0
S10910000895F894FFCFEF
S10510060A00DA
S9030000FC
