S01700004E65774E65774D656368616E69736D2E7372656324
S113000072C0000070C200009CC000009AC00000D2
S113001098C0000096C0000094C0000092C0000088
S113002090C000008EC000008CC000008AC0000098
S113003088C0000086C0000084C0000082C00000A8
S113004080C000007EC000007CC000007AC00000B8
S113005078C000001AC2000074C0000072C0000022
S113006070C00000B5C30000E2C300006AC0000015
S113007068C0000066C0000064C0000062C00000E8
S113008060C000005EC000005CC000005AC00000F8
S113009058C0000056C0000054C0000052C0000008
S11300A050C000004EC000004CC000004AC0000018
S11300B048C0000046C0000044C0000042C0000028
S11300C040C000003EC000003CC0000035C4000039
S11300D062C4000036C000008CC40000B9C4000033
S11300E030C000009F0211241FBECFEFD1E2DEBF5B
S11300F0CDBF00E00CBF12E0A0E0B2E0E8E5FEE016
S113010000E00BBF02C007900D92A231B107D9F7EE
S113011023E0A2E1B2E001C01D92AA35B207E1F7E3
S113012010E0C3E7D0E000E005C021970109802F6B
S1130130FE0188D6C237D10780E00807B1F7DDD0C9
S113014089C65ECFFC01168A178A108E118E138E13
S1130150128E11821082158E148E178E168E0895AB
S113016085B5856085BD8BE987BDEEE6F0E08081CD
S113017082608083A99A16BC0895E9E6F0E0808144
S113018082608083E89AE09A0895CF93DF93EC012C
S113019050980898F2DFCE01E3DFDF91CF91089504
S11301A0009B0EC0FC0146895789608D718D4F5F9D
S11301B05F4F6F4F7F4F468B578B608F718F0895C2
S11301C000990DC0FC0146895789608D718D41509D
S11301D0510961097109468B578B608F718F08959E
S11301E0FC01009B06C0828D938D0196938F828FB4
S11301F007C0009905C0828D938D0197938F828FDC
S1130200828D938D8115944014F0138E128E08956F
S1130210CF93DF93EC016A8D7B8D072E000C880B46
S1130220990BF9D420E030E040E85AE3A8D520E067
S113023030E044EB53E4A3D5BBD49B0179836883BA
S1130240283681E038071CF01982188205C0293944
S11302503E4F14F41982188288819981DF91CF91DD
S11302600895CF92DF92EF92FF920F931F93FC01B8
S1130270028513852485358506871787208B318B66
S1130280C680D780E084F184C286D386E486F5866E
S11302904281538164817581468357836087718766
S11302A086899789A08DB18D82839383A483B58336
S11302B0480F591F6A1F7B1FD701C601840F951F62
S11302C0A61FB71F800F911FA21FB31FB595A79537
S11302D097958795B595A79597958795828B938BD9
S11302E0A48BB58B168A178A108E118E1F910F91CD
S11302F0FF90EF90DF90CF9008958AE892E064D168
S11303008AE692E042DF8FE392E0A3D1EFE3F2E0EA
S11303100F2E412C512CF9E76F2EF3EC7F2EF02D8C
S1130320458A568A678A708E0F2E812C912CF9E7A4
S1130330AF2EF3E4BF2EF02D818A928AA38AB48A69
S11303400F2EFAEFCF2EFEE7DF2EFAE2EF2EF0E4C7
S1130350FF2EF02D0AE017ED23EA3BE341EE5AE7C6
S113036064EF70E4CF0197D184E192E072D1E4E1CB
S1130370F2E0458A568A678A708E818A928AA38AB5
S1130380B48A0F2EFCEECF2EF1E5DF2EF8EBEF2E24
S1130390FDE3FF2EF02D00E010E098014FE852EC51
S11303A065E070E4CF0177D1789487E690E06DD270
S11303B080E092E0B3D289E190E078D3CFE3D2E059
S11303C004E112E00F2EFDE2AF2EB12CF02D0F2E22
S11303D0FAE6EF2EF2E0FF2EF02D0F2EF3E3CF2EF0
S11303E0D12CF02D992493947C2E8D2E67D28736B0
S11303F069F0833781F0813691F410921302F80189
S1130400B2A6A1A6F701138E128E09C09092130210
S1130410DAA6C9A604C0909213021AA619A61092CD
S113042012022881222321F08091130281111AC023
S1130430F80120812223D1F2809113028111D6CFB9
S1130440C701E6DEBC01990F880B990BE4D3AB011D
S1130450BC01C8013AD1ACD38AE892E095D0F80146
S11304601082C4CFF70162897389072E000C880BB0
S1130470990BD1D3AB01BC01872D982D26D198D3EC
S11304808AE892E081D01882D3CF1F920F920FB6E0
S11304900F9211240BB60F922F933F934F935F93B8
S11304A06F937F938F939F93AF93BF93EF93FF9338
S11304B081E080933F02809314028AE692E0D1DEC9
S11304C0FF91EF91BF91AF919F918F917F916F9128
S11304D05F914F913F912F910F900BBE0F900FBEE4
S11304E00F901F9018951F920F920FB60F92112420
S11304F00BB60F922F933F934F935F936F937F931A
S11305008F939F93AF93BF93EF93FF938AE692E009
S113051047DE8AE692E064DEFF91EF91BF91AF91EE
S11305209F918F917F916F915F914F913F912F9107
S11305300F900BBE0F900FBE0F901F9018958AE678
S113054092E000CE0895279A249A259AE0E8F0E0F4
S1130550808182688083E1E8F0E080818A61808321
S113056089EF90E0909387008093860008952F9AF6
S11305702C9808952F982C9A08952F9A2C9A1092BB
S113058089001092880008950F931F93CF93DF93EF
S11305908C01EB011C161D060CF4E9DFC93FD105E3
S11305A044F4DD2344F4D195C195D109C801E2DFB7
S11305B002C0C9EFD0E0D0938900C0938800DF91D6
S11305C0CF911F910F910895CF93DF93EC01BBDF7F
S11305D0CE01D3DF60E070E0CE01D6DFDF91CF91B2
S11305E008958F929F92AF92BF92CF92DF92EF9233
S11305F0FF920F931F93CF93DF93EC014A015B01AA
S1130600680179019A01AB01688179818A819B81B2
S1130610CBD2882324F488829982AA82BB82A70140
S11306209601688179818A819B81A5D3181624F467
S1130630C882D982EA82FB82DF91CF911F910F9108
S1130640FF90EF90DF90CF90BF90AF909F908F90EE
S11306500895FC011182128213821482158216827B
S1130660178210861186128613861486118E128EB6
S1130670138E148E158616861786108A11A212A25E
S113068013A214A215A216A217A210A612A611A6AE
S113069081E080830895CF92DF92EF92FF920F93CF
S11306A01F93FC0141835283638374830583168300
S11306B027833087C186D286E386F4861F910F9103
S11306C0FF90EF90DF90CF9008954F925F926F92DA
S11306D07F928F929F92AF92BF92CF92DF92EF92CE
S11306E0FF920F931F93CF93DF93EC016A017B0179
S11306F069A57AA5072E000C880B990B8CD2A7014B
S11307009601EDD14B015C01698F7A8F8B8F9C8FA1
S11307102D853E854F855889E3D12B013C016D879A
S11307207E878F87988B29813A814B815C81C501B3
S1130730B40125D34B015C012D813E814F81588545
S1130740C301B2011CD39B01AC01C501B401C8D1E2
S11307504B015C0129A13AA14BA15CA1C701B601DF
S1130760BED129853A854B855C8509D39B01AC01B3
S1130770C501B401B5D12DA13EA14FA158A5B0D159
S11307806D8F7E8F8F8F98A309891A892B893C8955
S11307904D895E896F89788DCE014D9622DFC9A27D
S11307A0DAA2EBA2FCA26D8D7E8D8F8D98A1DF91D4
S11307B0CF911F910F91FF90EF90DF90CF90BF905A
S11307C0AF909F908F907F906F905F904F9008951F
S11307D01F920F920FB60F9211240BB60F922F9304
S11307E08F939F93EF93FF938091C0002091C60055
S11307F08871E0911703EF5FEF7190911603E91789
S113080039F0E0931703F0E0E65EFC4F208301C06B
S113081082E080931503FF91EF919F918F912F9127
S11308200F900BBE0F900FBE0F901F9018951F9244
S11308300F920FB60F9211240BB60F928F939F93C2
S1130840EF93FF939091190380911803981769F01F
S1130850E0911803EF5FEF71E0931803F0E0E65CBA
S1130860FC4F80818093C60005C0E1ECF0E08081FC
S11308708F7D8083FF91EF919F918F910F900BBE9D
S11308800F900FBE0F901F9018951092190310929D
S113089018031092170310921603992324F422E0EC
S11308A02093C0009F779093C5008093C40088E98B
S11308B08093C10086E08093C2000895909117034D
S11308C080911603981791F0E0911603EF5FEF7192
S11308D0E0931603F0E0E65EFC4F2081809115035F
S11308E090E0982F8827820F911D089580E091E071
S11308F00895209119032F5F2F71909118032917E0
S1130900E1F3E22FF0E0E65CFC4F808320931903CF
S1130910E1ECF0E08081806280830895CF93DF93DF
S1130920EC018881882329F02196E3DF89918111E4
S1130930FCCFDF91CF9108951F920F920FB60F92C3
S113094011240BB60F922F938F939F93EF93FF93E2
S11309508091D0002091D6008871E091D202EF5F9F
S1130960EF719091D102E91739F0E093D202F0E0EF
S1130970EB52FD4F208301C082E08093D002FF91AF
S1130980EF919F918F912F910F900BBE0F900FBEFF
S11309900F901F9018951F920F920FB60F9211246B
S11309A00BB60F928F939F93EF93FF939091D40282
S11309B08091D302981769F0E091D302EF5FEF7151
S11309C0E093D302F0E0EB50FD4F80818093D6009A
S11309D005C0E1EDF0E080818F7D8083FF91EF9190
S11309E09F918F910F900BBE0F900FBE0F901F9091
S11309F018951F920F920FB60F9211240BB60F92F7
S1130A002F938F939F93EF93FF93809130012091C5
S1130A1036018871E0918D02EF5FEF7190918C0245
S1130A20E91739F0E0938D02F0E0E057FD4F2083A1
S1130A3001C082E080938B02FF91EF919F918F918F
S1130A402F910F900BBE0F900FBE0F901F90189513
S1130A501F920F920FB60F9211240BB60F928F9321
S1130A609F93EF93FF9390918F0280918E0298173A
S1130A7069F0E0918E02EF5FEF71E0938E02F0E097
S1130A80E055FD4F80818093360105C0E1E3F1E03C
S1130A9080818F7D8083FF91EF919F918F910F9043
S1130AA00BBE0F900FBE0F901F90189510928F02DF
S1130AB010928E0210928D0210928C02992324F4CB
S1130AC026E0209330019F77909335018093340181
S1130AD088E98093310186E080933201089550586B
S1130AE0BB27AA270ED00DC1FED030F003D120F0D1
S1130AF031F49F3F11F41EF4F3C00EF4E095E7FBCC
S1130B00E9C0E92F0FD180F3BA176207730784078E
S1130B10950718F071F49EF527C10EF4E0950B2E9D
S1130B20BA2FA02D0B01B90190010C01CA01A0013B
S1130B301124FF27591B99F0593F50F4503E68F196
S1130B401A16F040A22F232F342F4427585FF3CFD7
S1130B50469537952795A795F0405395C9F77EF4A8
S1130B601F16BA0B620B730B840BBAF09150A1F0F1
S1130B70FF0FBB1F661F771F881FC2F70EC0BA0F77
S1130B80621F731F841F48F4879577956795B795FF
S1130B90F7959E3F08F0B3CF9395880F08F09927F7
S1130BA0EE0F97958795089571D008F481E0089524
S1130BB004D06894B111D9C00895BCD088F09F576F
S1130BC090F0B92F9927B751A0F0D1F0660F771F95
S1130BD0881F991F1AF0BA95C9F712C0B13081F075
S1130BE0C3D0B1E00895C0C0672F782F8827B85FBD
S1130BF039F0B93FCCF3869577956795B395D9F7D6
S1130C003EF490958095709561957F4F8F4F9F4FDF
S1130C100895E89409C097FB3EF4909580957095EB
S1130C2061957F4F8F4F9F4F9923A9F0F92F96E934
S1130C30BB279395F695879577956795B795F111A9
S1130C40F8CFFAF4BB0F11F460FF1BC06F5F7F4F46
S1130C508F4F9F4F16C0882311F096E911C0772358
S1130C6021F09EE8872F762F05C0662371F096E861
S1130C70862F70E060E02AF09A95660F771F881F30
S1130C80DAF7880F9695879597F90895990F0008D4
S1130C90550FAA0BE0E8FEEF16161706E807F9074A
S1130CA0C0F012161306E407F50798F0621B730BE5
S1130CB0840B950B39F40A2661F0232B242B252B66
S1130CC021F408950A2609F4A140A6958FEF811D09
S1130CD0811D089597F99F6780E870E060E00895AA
S1130CE09FEF80EC089500240A9416161706180640
S1130CF00906089500240A9412161306140605061C
S1130D000895092E0394000C11F4882352F0BB0FAC
S1130D1040F4BF2B11F460FF04C06F5F7F4F8F4F0F
S1130D209F4F089557FD9058440F551F59F05F3F4A
S1130D3071F04795880F97FB991F61F09F3F79F0F9
S1130D4087950895121613061406551FF2CF46957B
S1130D50F1DF08C0161617061806991FF1CF8695FD
S1130D607105610508940895E894BB2766277727E1
S1130D70CB0197F908958ADF08F48FEF08950BD01B
S1130D80C0CFB1DF28F0B6DF18F0952309F0A2CF69
S1130D90A7CF1124EACFC6DFA0F3959FD1F3950F17
S1130DA050E0551F629FF001729FBB27F00DB11DEB
S1130DB0639FAA27F00DB11DAA1F649F6627B00D7B
S1130DC0A11D661F829F2227B00DA11D621F739F64
S1130DD0B00DA11D621F839FA00D611D221F749F72
S1130DE03327A00D611D231F849F600D211D822FB9
S1130DF0762F6A2F11249F5750408AF0E1F0882300
S1130E004AF0EE0FFF1FBB1F661F771F881F91500C
S1130E105040A9F79E3F510570F05CCFA6CF5F3FCD
S1130E20ECF3983EDCF3869577956795B795F7953F
S1130E30E7959F5FC1F7FE2B880F911D96958795C7
S1130E4097F90895EE0FFF1F881F8BBF0790F69147
S10B0E50E02D1994F894FFCF82
S1130E584769766520436F6D6D616E642121210AAF
S1050E68000084
S9030000FC
