S01700004E65774E65774D656368616E69736D2E7372656324
S113000089C00000C0C20000B3C00000B1C000003D
S1130010AFC00000ADC00000ABC00000A9C000002C
S1130020A7C00000A5C00000A3C00000A1C000003C
S11300309FC000009DC000009BC0000099C000004C
S113004097C0000095C0000093C0000091C000005C
S11300508FC000006CC200008BC0000089C000008B
S113006087C000000BC4000038C4000081C0000039
S11300707FC000007DC000007BC0000079C000008C
S113008077C0000075C0000073C0000071C000009C
S11300906FC000006DC000006BC0000069C00000AC
S11300A067C0000065C0000063C0000061C00000BC
S11300B05FC000005DC000005BC0000059C00000CC
S11300C057C0000055C0000053C000008AC400009F
S11300D0B7C400004DC0000060C500008DC500001D
S11300E047C000003B0241026C02CD011B026C02BE
S11300F06C026C02B3016C026C026C026C026C0246
S11301006C029901E7016C0235026C026C026C020C
S11301100102EC0211241FBECFEFD1E2DEBFCDBF3E
S113012000E00CBF12E0A0E0B2E0E4E3F0E100E0A4
S11301300BBF02C007900D92A031B107D9F723E09D
S1130140A0E1B2E001C01D92A033B207E1F710E0D4
S1130150CAE8D0E000E005C021970109802FFE0124
S11301602CD7C938D10780E00807B1F79CD060C705
S113017047CFFC01168A178A108E118E138E128EA9
S113018011821082158E148E178E168E089585B5E1
S1130190856085BD8BE987BDEEE6F0E080818260F5
S11301A08083A99A16BC0895E9E6F0E08081826014
S11301B08083E89AE09A0895CF93DF93EC015098F6
S11301C00898F2DFCE01E3DFDF91CF910895009B21
S11301D00EC0FC0146895789608D718D41505109CB
S11301E061097109468B578B608F718F089500994F
S11301F00DC0FC0146895789608D718D4F5F5F4F3B
S11302006F4F7F4F468B578B608F718F0895CF92BE
S1130210DF92EF92FF920F931F93FC0102851385E7
S11302202485358506871787208B318BC680D78038
S1130230E084F184C286D386E486F58642815381C4
S1130240648175814683578360877187868997891E
S1130250A08DB18D82839383A483B583480F591FE6
S11302606A1F7B1FD701C601840F951FA61FB71FE6
S1130270800F911FA21FB31FB595A79597958795DA
S1130280B595A79597958795828B938BA48BB58B02
S1130290168A178A108E118E1F910F91FF90EF907E
S11302A0DF90CF90089580E692E0EDD180E492E073
S11302B083DF81E192E02CD2E1E1F2E080E090E0A2
S11302C0A9E7B3EC858B968BA78BB08F80E090E089
S11302D0A9E7B3E4818B928BA38BB48BC12CD12C73
S11302E0760197018601B701A601CF0133D2789434
S11302F087E690E020D387E690E0D0D380E092E0D8
S11303003ED4C1E1D2E00F2EF0E4AF2EF2E0BF2ED6
S1130310F02DDDD38093100290E0FC01E156F10949
S1130320E731F10508F0D8C08827EE58FF4F8F4F0A
S113033044C62DEC3CEC4CEC5DE369817A818B8105
S11303409C8189D4AB01BC0149835A836B837C8330
S1130350C984DA84EB84FC840D811E812F81388565
S1130360CE01F8D1B9C02AE037ED43EA5BE36D81F1
S11303707E818F8198856FD48B019C016D837E83F0
S11303808F839887C984DA84EB84FC8449815A81F9
S11303906B817C81CE01DED19FC02DEC3CEC4CEC1A
S11303A05DE369857A858B859C8555D46B017C01D9
S11303B069877A878B879C870D811E812F81388579
S11303C049815A816B817C81CE01C4D185C02DECD9
S11303D03CEC4CEC5DE369817A818B819C813AD45D
S11303E0AB01BC0149835A836B837C83C984DA845F
S11303F0EB84FC840D811E812F813885CE01AAD126
S11304006BC02AE037ED43EA5BE36D817E818F8127
S1130410988520D48B019C016D837E838F8398877C
S1130420C984DA84EB84FC8449815A816B817C81A0
S1130430CE0190D151C02DEC3CEC4CEC5DE36985D0
S11304407A858B859C8506D46B017C0169877A87C4
S11304508B879C870D811E812F81388549815A8124
S11304606B817C81CE0176D137C08DA59EA50A967D
S11304709EA78DA731C08DA59EA50A979EA78DA77F
S11304802BC020E030E040E251E469817A818B8125
S11304909C8130D548D4CB014AD380E233D320E0C9
S11304A030E04AE754E46D817E818F81988522D5BE
S11304B03AD4CB013CD380E225D320E030E040E2C3
S11304C051E469857A858B859C8514D52CD4CB0120
S11304D02ED38CE092E053D31092100288818823AB
S11304E081F0F50162897389072E000C880B990B42
S11304F04DD4AB01BC01CE0147D115D480E692E0C6
S1130500A2D088E89FEF45D280E22ED288E790E01F
S113051040D280E229D28DA59EA53BD280E224D28E
S1130520F5018289938935D28AE01ED2F2CE1F92D8
S11305300F920FB60F9211240BB60F922F933F9385
S11305404F935F936F937F938F939F93AF93BF93D7
S1130550EF93FF9381E08093110280E492E057DEF1
S1130560FF91EF91BF91AF919F918F917F916F9187
S11305705F914F913F912F910F900BBE0F900FBE43
S11305800F901F9018951F920F920FB60F9211247F
S11305900BB60F922F933F934F935F936F937F9379
S11305A08F939F93AF93BF93EF93FF9380E492E075
S11305B00EDEFF91EF91BF91AF919F918F917F914B
S11305C06F915F914F913F912F910F900BBE0F90C0
S11305D00FBE0F901F90189580E492E0CACD089545
S11305E0E1E0F1E0808180648083269A80818062EA
S11305F08083E0EAF0E080818A608083E1EAF0E0D1
S113060080818A61808389EF90E09093A700809332
S1130610A6000895E2E0F1E08081806480832E9852
S11306200895E2E0F1E080818F7B80832E9A089523
S1130630E2E0F1E08081806480832E9A1092AD0024
S11306401092AC0008950F931F93CF93DF938C0106
S1130650EB011C161D060CF4DDDFC93FD10544F483
S1130660DD2344F4D195C195D109C801DADF02C074
S1130670C9EFD0E0D093AD00C093AC00DF91CF912F
S11306801F910F910895CF93DF93EC01A9DFCE0161
S1130690CFDF60E070E0CE01D6DFDF91CF91089527
S11306A08F929F92AF92BF92CF92DF92EF92FF927E
S11306B00F931F93CF93DF93EC014A015B01680111
S11306C079019A01AB01688179818A819B8127D361
S11306D0882324F488829982AA82BB82A701960186
S11306E0688179818A819B8101D4181624F4C88297
S11306F0D982EA82FB82DF91CF911F910F91FF9003
S1130700EF90DF90CF90BF90AF909F908F9008951F
S1130710FC011182128213821482158216821782BE
S113072010861186128613861486118E128E138EED
S1130730148E158616861786108A15A216A217A27D
S113074010A611A612A613A614A616A615A681E035
S113075080830895CF92DF92EF92FF920F931F93BD
S1130760FC01418352836383748305831683278347
S11307703087C186D286E386F4861F910F91FF905D
S1130780EF90DF90CF9008954F925F926F927F9297
S11307908F929F92AF92BF92CF92DF92EF92FF928D
S11307A00F931F93CF93DF93EC016A017B016DA537
S11307B07EA5072E000C880B990BE8D2A7019601A1
S11307C049D24B015C01698F7A8F8B8F9C8F2D816D
S11307D03E814F8158858ED329A13AA14BA15CA1BA
S11307E03AD22B013C0169A37AA38BA39CA3298150
S11307F03A814B815C81C501B4017CD39B01AC017E
S1130800C301B20128D24B015C012DA13EA14FA12D
S113081058A5C701B6011ED229853A854B855C854A
S113082069D39B01AC01C501B40114D26D8F7E8FD5
S11308308F8F98A309891A892B893C894D895E89F0
S11308406F89788DCE014D962BDFCDA2DEA2EFA26B
S1130850F8A66D8D7E8D8F8D98A1DF91CF911F911C
S11308600F91FF90EF90DF90CF90BF90AF909F904B
S11308708F907F906F905F904F9008951F920F928A
S11308800FB60F9211240BB60F922F938F939F9351
S1130890EF93FF938091C0002091C6008871E0918E
S11308A0ED02EF5FEF719091EC02E91739F0E093FC
S11308B0ED02F0E0E051FD4F208301C082E080931F
S11308C0EB02FF91EF919F918F912F910F900BBEAF
S11308D00F900FBE0F901F9018951F920F920FB696
S11308E00F9211240BB60F928F939F93EF93FF9364
S11308F09091EF028091EE02981769F0E091EE0278
S1130900EF5FEF71E093EE02F0E0E05FFC4F808177
S11309108093C60005C0E1ECF0E080818F7D808388
S1130920FF91EF919F918F910F900BBE0F900FBE8F
S11309300F901F9018951092EF021092EE021092F1
S1130940ED021092EC02992324F422E02093C000DB
S11309509F779093C5008093C40088E98093C10079
S113096086E08093C20008952091EF022F5F2F71DB
S11309709091EE022917E1F3E22FF0E0E05FFC4FE3
S113098080832093EF02E1ECF0E080818062808339
S113099008950F931F93CF93DF93CDB7DEB72F97AF
S11309A00FB6F894DEBF0FBECDBF4AE0BE016F5F45
S11309B07F4F0BD38981882349F08E010E5F1F4F2F
S11309C0D3DFF80181918F018111FACF2F960FB6F1
S11309D0F894DEBF0FBECDBFDF91CF911F910F9171
S11309E008951F920F920FB60F9211240BB60F9217
S11309F02F938F939F93EF93FF938091D000209137
S1130A00D6008871E091A802EF5FEF719091A70280
S1130A10E91739F0E093A802F0E0E555FD4F208393
S1130A2001C082E08093A602FF91EF919F918F9184
S1130A302F910F900BBE0F900FBE0F901F90189523
S1130A401F920F920FB60F9211240BB60F928F9331
S1130A509F93EF93FF939091AA028091A902981714
S1130A6069F0E091A902EF5FEF71E093A902F0E071
S1130A70E553FD4F80818093D60005C0E1EDF0E0A1
S1130A8080818F7D8083FF91EF919F918F910F9053
S1130A900BBE0F900FBE0F901F9018951092AA02D4
S1130AA01092A9021092A8021092A702992324F48A
S1130AB022E02093D0009F779093D5008093D400B8
S1130AC088E98093D10086E08093D20008959091C4
S1130AD0A8028091A702981791F0E091A702EF5F16
S1130AE0EF71E093A702F0E0E555FD4F208180917E
S1130AF0A60290E0982F8827820F911D089580E028
S1130B0091E008952091AA022F5F2F719091A9027C
S1130B102917E1F3E22FF0E0E553FD4F80832093A2
S1130B20AA02E1EDF0E080818062808308950F9352
S1130B301F93CF93DF93CDB7DEB72F970FB6F894FB
S1130B40DEBF0FBECDBF4AE0BE016F5F7F4F3DD217
S1130B508981882349F08E010E5F1F4FD3DFF8018E
S1130B6081918F018111FACF2F960FB6F894DEBFD1
S1130B700FBECDBFDF91CF911F910F910895CF93F9
S1130B80DF93EC018881882329F02196BBDF8991CA
S1130B908111FCCFDF91CF9108951F920F920FB670
S1130BA00F9211240BB60F922F938F939F93EF9371
S1130BB0FF9380913001209136018871E0916302A6
S1130BC0EF5FEF7190916202E91739F0E0936302ED
S1130BD0F0E0EA59FD4F208301C082E08093610276
S1130BE0FF91EF919F918F912F910F900BBE0F90DA
S1130BF00FBE0F901F9018951F920F920FB60F9271
S1130C0011240BB60F928F939F93EF93FF939091C0
S1130C10650280916402981769F0E0916402EF5FC5
S1130C20EF71E0936402F0E0EA57FD4F8081809316
S1130C30360105C0E1E3F1E080818F7D8083FF917F
S1130C40EF919F918F910F900BBE0F900FBE0F905D
S1130C501F9018955058BB27AA270ED00DC1FED05F
S1130C6030F003D120F031F49F3F11F41EF4F3C0AF
S1130C700EF4E095E7FBE9C0E92F0FD180F3BA1732
S1130C80620773078407950718F071F49EF527C16E
S1130C900EF4E0950B2EBA2FA02D0B01B901900193
S1130CA00C01CA01A0011124FF27591B99F0593FD7
S1130CB050F4503E68F11A16F040A22F232F342F1F
S1130CC04427585FF3CF469537952795A795F0406D
S1130CD05395C9F77EF41F16BA0B620B730B840B82
S1130CE0BAF09150A1F0FF0FBB1F661F771F881F3A
S1130CF0C2F70EC0BA0F621F731F841F48F4879592
S1130D0077956795B795F7959E3F08F0B3CF939580
S1130D10880F08F09927EE0F97958795089571D05D
S1130D2008F481E0089504D06894B111D9C00895FD
S1130D30BCD088F09F5790F0B92F9927B751A0F0F5
S1130D40D1F0660F771F881F991F1AF0BA95C9F75B
S1130D5012C0B13081F0C3D0B1E00895C0C0672F94
S1130D60782F8827B85F39F0B93FCCF3869577950B
S1130D706795B395D9F73EF49095809570956195F4
S1130D807F4F8F4F9F4F0895E89409C097FB3EF41F
S1130D9090958095709561957F4F8F4F9F4F9923C4
S1130DA0A9F0F92F96E9BB279395F6958795779542
S1130DB06795B795F111F8CFFAF4BB0F11F460FF02
S1130DC01BC06F5F7F4F8F4F9F4F16C0882311F05A
S1130DD096E911C0772321F09EE8872F762F05C06E
S1130DE0662371F096E8862F70E060E02AF09A9509
S1130DF0660F771F881FDAF7880F9695879597F9FE
S1130E000895990F0008550FAA0BE0E8FEEF161697
S1130E101706E807F907C0F012161306E407F507EA
S1130E2098F0621B730B840B950B39F40A2661F05E
S1130E30232B242B252B21F408950A2609F4A14001
S1130E40A6958FEF811D811D089597F99F6780E80E
S1130E5070E060E008959FEF80EC089500240A9408
S1130E601616170618060906089500240A94121681
S1130E701306140605060895092E0394000C11F4B4
S1130E80882352F0BB0F40F4BF2B11F460FF04C061
S1130E906F5F7F4F8F4F9F4F089557FD9058440FBA
S1130EA0551F59F05F3F71F04795880F97FB991FC5
S1130EB061F09F3F79F08795089512161306140682
S1130EC0551FF2CF4695F1DF08C01616170618060F
S1130ED0991FF1CF86957105610508940895E894EA
S1130EE0BB2766277727CB0197F908958ADF08F493
S1130EF08FEF08950BD0C0CFB1DF28F0B6DF18F024
S1130F00952309F0A2CFA7CF1124EACFC6DFA0F31F
S1130F10959FD1F3950F50E0551F629FF001729F8A
S1130F20BB27F00DB11D639FAA27F00DB11DAA1FA9
S1130F30649F6627B00DA11D661F829F2227B00DF6
S1130F40A11D621F739FB00DA11D621F839FA00D81
S1130F50611D221F749F3327A00D611D231F849FD1
S1130F60600D211D822F762F6A2F11249F57504028
S1130F708AF0E1F088234AF0EE0FFF1FBB1F661FC3
S1130F80771F881F91505040A9F79E3F510570F07C
S1130F905CCFA6CF5F3FECF3983EDCF38695779564
S1130FA06795B795F795E7959F5FC1F7FE2B880F77
S1130FB0911D9695879597F90895EE0FFF1F881F49
S1130FC08BBF0790F691E02D1994BB274A3031F47A
S1130FD0992322F4BDE2909581959F4F01C0BB27D0
S1130FE0FB015527AA27880F991FAA1FA41710F0E1
S1130FF0A41B83955051B9F7A05DAA3308F0A95DED
S1131000A193009779F7B111B1931192CB0100C06C
S1131010DC01FC01672F71917723E1F7329704C05B
S11310207C916D9370836291AE17BF07C8F30895E6
S1071030F894FFCF5E
S11310344869207468657265212121000D0A000045
S9030000FC
